:020000040000FA
:10000000050000EAFEFFFFEAFEFFFFEAFEFFFFEA4F
:10001000FEFFFFEAFEFFFFEAFEFFFFEA90429FE5D8
:1000200004404FE02C804FE288829FE588929FE554
:10003000048098E7049099E70500001A006098E5AD
:10004000090016E10000A0130010A0130020A01367
:100050000030A01364529FE564629FE564729FE5DF
:1000600064A29FE564B29FE564C29FE564D29FE508
:10007000045095E7046096E7047097E704A09AE7B8
:1000800004B09BE704C09CE704D09DE7006085E5D1
:1000900007F08FE00000A0E1074084E0009088E5D1
:1000A00000B08AE530B29FE530529FE530629FE5AF
:1000B00030829FE5045095E7046096E7048098E756
:1000C000084084E0074044E000D08CE504F08BE079
:1000D000006085E5106F11EE506C86E3106F01EE45
:1000E00004A29FE504A09AE740DC8AE20F002DE914
:1000F000F8119FE5F8219FE5012042E0041081E01E
:100100000A00A0E15D0000EB0A00A0E12A0000EB7C
:100110000F00BDE8DC619FE5046096E7D8E19FE54C
:1001200004E09EE70ED086E00F002DE9CC319FE57C
:10013000043093E70450B3E7045085E0C0019FE525
:10014000C0119FE5001041E0040080E00620A0E11E
:100150000FE0A0E105F0A0E1ACE19FE504E09EE73F
:10016000A8719FE50470D7E778019FE5044090E708
:100170000F00BDE898519FE598619FE5056056E046
:100180000050A0030080A0E30090A0E300A0A0E343
:1001900000B0A0E300C0A0E3000057E30070A0E3BC
:1001A00010DF11EE80D08D1350DCCDE310DF01EEB7
:1001B00015DF07EE0EF0A0E1BC01000010402DE9B4
:1001C0000040A0E110108FE2E4208FE23D1F07EE17
:1001D000081081E2020051E1FBFFFF3A0300B4E89E
:1001E000010010E300108005FBFFFF0A0100C0E3DF
:1001F0000128A0E12228A0E1211EA0E1090051E38D
:1002000001F18F30FEFFFFEA0B0000EA100000EA68
:10021000150000EAFAFFFFEAF9FFFFEAF8FFFFEA3C
:10022000F7FFFFEAF6FFFFEA043094E4003080E5D0
:10023000042052E2FBFFFFCAE7FFFFEA000052E39F
:100240001080BD080410A0E1024084E00B0000EB28
:10025000E1FFFFEA0600B4E8003090E5023003E079
:10026000030051E1FBFFFF1ADBFFFFEA160050E23B
:10027000D9FFFF3A040050E2FDFFFF2AD6FFFFEA54
:10028000F04F2DE92C2052E2020000BAF85FB1E8ED
:10029000F85FA0E8FAFFFFEA2C2082E2022081E06A
:1002A000010052E1F08FBDD8044091E4044080E4A5
:1002B000FAFFFFEA28000000280300002C030000DA
:1002C0001C03000020030000240300003003000092
:1002D00034030000380300003C030000D00000009D
:1002E0004403000048030000400300004C030000EA
:1002F00068030000F80300005003000054030000EE
:1003000060030000F8030000B85811005803000013
:10031000640300000000000000000000C0C0FF7F78
:10032000010B00400000004000C0FF7F0100000002
:1003300080C0FF7F83C6FF7FC0C0FF7F030B0040EC
:100340000000004090C0FF7F810600000000000018
:10035000000002000040000000000000000000005B
:10036000B80100000000000001C3FF7F1000000082
:100370000000040005050200010102005510000004
:100380001CC3FF7F0410000020C3FF7F102000006B
:1003900045C0FF7F080000000200000002000000CE
:1003A00094C0FF7F81060200A0C0FF7F810810007B
:1003B000C4C0FF7F030B8040D0C0FF7F83060010C6
:1003C00034C0FF7F000000003CC0FF7F0000000041
:1003D00018CCFF7F0300000091C3FF7F08000000DE
:1003E000100000000000000080C3FF7F48000000F4
:1003F000010000000000000001000000482B000088
:100400002A0000EA060000EA090000EA1B0000EAF0
:100410001E0000EA010000EA140000EA1F0000EAE2
:10042000FEFFFFEAFF5F2DE91F0100EBFF5FBDE864
:1004300004F05EE2FF5F2DE904005EE2000090E55B
:10044000FF14E0E3010000E0010050E30000000AB7
:10045000040000EA00104FE1C000E0E3001001E0FA
:1004600001F061E1FFFFFFEAFF5FBDE80EF0B0E1E0
:10047000FF5F2DE92B0100EBFF5FBDE804F05EE2BA
:10048000FF5F2DE9EE0000EBFF5FBDE804F05EE2E8
:10049000FF5F2DE9F40000EBFF5FBDE804F05EE2D2
:1004A000FF402DE9850100EBFF40BDE804F05EE26E
:1004B000100F11EE38109FE5010090E1100F01EED2
:1004C000D3F021E390DBA0E3D2F021E388DBA0E3CB
:1004D000D1F021E386DBA0E3DBF021E385DBA0E3C1
:1004E000D7F021E387DBA0E3D0F021E384DBA0E3B6
:1004F000000000EA7810008090808FE20F0098E8FA
:10050000080080E0081081E0082082E0083083E0E5
:1005100001B040E201C042E2010050E10E00000AD9
:100520007000B0E8050054E1FAFFFF0A010014E38F
:100530000B408410010015E30B508510020015E3F9
:10054000095085100350C5E3046056E204709424FA
:1005500004708524FBFFFF8AEEFFFFEA030052E1EF
:10056000BA08000B0070A0E33000B2E8010014E309
:100570000C408410020014E3094084100340C4E3DB
:10058000045055E204708424FCFFFF8AF2FFFFEA66
:100590007C290000A0290000A0290000B829000043
:1005A00008402DE94102A0E368109FE5000081E5C5
:1005B0008102A0E360109FE5000081E5C102A0E395
:1005C00058109FE5000081E5040080E250109FE58F
:1005D000000081E54009A0E348109FE5000081E5A7
:1005E000EB0900EB520100EB3C008FE2210200EB33
:1005F00064008FE21F0200EB8C008FE21D0200EB13
:1006000024008FE21B0200EBAC009FE5190200EB17
:100610000000A0E1FEFFFFEA180002001C0002003B
:100620002000020024000200280002000D2A2A2ACD
:100630002A2A2A2A2A2A2A2A2A2A2A2A2A2A2A2A1A
:100640002A2A2A2A2A2A2A2A2A2A2A2A2A2A2A2A0A
:100650002A2A2A2A2A2A2A2A0D0A00000D2A20419B
:100660006C7465726120457863616C696275722093
:10067000446576656C6F706D656E7420426F617253
:10068000642020202020202A0D0A00000D2A204866
:1006900075696E7320436F2E2C204C74642E20538A
:1006A0006F434D61737465722044656D6F6E737432
:1006B000726174696F6E202A0D0A0000B82900006B
:1006C00010402DE90000A0E3CA0100EBFF4000E26A
:1006D0001080BDE83E402DE90040A0E30000A0E10D
:1006E0000000A0E3C30100EBFF5000E20D0055E362
:1006F0000900000A0400A0E1014084E20050CDE7B7
:100700000010A0E30500A0E1EF0100EB090054E3B5
:10071000000000BA000000EAF0FFFFEA0000A0E3DA
:100720000400CDE70C209FE50C108FE20D00A0E146
:10073000F90100EB3E80BDE80400020025750000D1
:1007400010402DE90000A0E10000A0E3A90100EBAA
:10075000FF0000E20040A0E10D0050E32100000A8C
:1007600084009FE50040C0E50000A0E378109FE50D
:100770000100C1E50010A0E30400A0E1D20100EBFC
:100780002A0054E30C00000A2B0054E30200000A84
:100790002D0054E30C00001A030000EA0500A0E35A
:1007A00048109FE5000081E50D0000EA0600A0E387
:1007B00038109FE5000081E5090000EA0700A0E38A
:1007C00028109FE5000081E5050000EA20008FE287
:1007D000A80100EB0500A0E310109FE5000081E5F3
:1007E0002B40A0E3D7FFFFEA1080BDE838000200ED
:1007F0002C0002000D0A496E76616C6964206F70EE
:1008000065726174696F6E2C20706C656173652010
:10081000656E746572202B2C2D2C206F72202A207F
:100820002E0D0A0008402DE904008FE2910100EB33
:100830000880BDE8446174612061626F72740D0AC2
:100840000000000008402DE904008FE2890100EB60
:100850000880BDE84572726F7220707265666574BB
:1008600063682061626F72740D0A000008402DE910
:1008700004008FE27F0100EB0880BDE84572726FD3
:100880007220646174612061626F72740D0A0000ED
:1008900008402DE904008FE2760100EB0880BDE8F6
:1008A0004572726F72207377690D0A0008402DE956
:1008B00004008FE26F0100EB0880BDE84572726FA3
:1008C0007220756E646566696E656420696E737406
:1008D00072756374696F6E0D0A0000000310A0E367
:1008E00098219FE5181C82E50000A0E3110050E369
:1008F0000500002A010000EA010080E2FAFFFFEA99
:100900007C119FE5000181E7FAFFFFEA3F10A0E3B9
:1009100068219FE5041C82E58210A0E30120C2E16A
:10092000001C82E50EF0A0E138402DE94152A0E321
:1009300048019FE5100C90E50040A0E1010054E360
:100940000200000A070054E34700001A440000EACE
:10095000000095E50E0050E300F18F903E0000EAA4
:100960000D0000EA140000EA0F0000EA3A0000EA75
:10097000210000EA280000EA230000EA360000EA2D
:10098000110000EA180000EA130000EA320000EA51
:10099000290000EA2C0000EA230000EA0110A0E38D
:1009A000E0008FE2330100EB2C0000EA0210A0E32C
:1009B000D0008FE22F0100EB280000EA0310A0E333
:1009C000C0008FE22B0100EB240000EA0410A0E33A
:1009D000B0008FE2270100EB200000EA0510A0E341
:1009E000A0008FE2230100EB1C0000EA0610A0E348
:1009F00090008FE21F0100EB180000EA0710A0E34F
:100A000080008FE21B0100EB140000EA0810A0E355
:100A100070008FE2170100EB100000EA0910A0E35C
:100A200060008FE2130100EB0C0000EA0010A0E36D
:100A300050008FE20F0100EB080000EA2A10A0E34B
:100A400054008FE20B0100EB040000EA2310A0E346
:100A500044008FE2070100EB000000EA0000A0E183
:100A6000050000EAA50000EB030000EA0410A0E185
:100A700038008FE2FF0000EB0000A0E13880BDE805
:100A800000C0FF7F80CCFF7F4B65792056616C757D
:100A900065203A2025640D0A000000004B6579208E
:100AA00056616C7565203A2025630D0A0000000030
:100AB000556E6B6E6F776E206972712025237800FA
:100AC00008402DE904008FE2000100EB0880BDE83A
:100AD000556E6578706563746564204649510D0AEA
:100AE0000000000008402DE93C109FE51800A0E33D
:100AF000563412EF0000A0E1FEFFFFEA0EF0A0E185
:100B00003F402DE900E0A0E101C0A0E10240A0E1EA
:100B10000350A0E114009FE500008DE504C08DE5C1
:100B20000F009DE810D08DE23080BDE82600020065
:100B30007809020008402DE90000A0E310139FE5AA
:100B4000000081E50C139FE5000081E50000A0E3B3
:100B500004139FE5000081E500139FE5000081E597
:100B60005DFFFFEB0300A0E3F4129FE5A80281E51F
:100B70002100A0E30010C1E1B40281E50000A0E380
:100B80000010C1E1B80281E50700A0E30010C1E157
:100B9000940281E50300A0E30010C1E19C0281E51D
:100BA0000100A0E30010C1E1980281E50880BDE8E2
:100BB000AC029FE58C0290E50030A0E10000A0E1CE
:100BC0009C029FE58C0290E51F0000E20F0050E3BD
:100BD0001500002A84029FE5000090E578129FE549
:100BE000001091E5010050E10F00000A6C029FE542
:100BF000000090E5011080E260029FE5002090E592
:100C0000001080E55C029FE50200D0E750129FE5EE
:100C1000900281E544029FE5000090E5C10A00E0F2
:100C200038129FE5000081E5E4FFFFEA2C029FE512
:100C3000000090E520129FE5001091E5010050E1D1
:100C40000300001A0200A0E314129FE59C0281E554
:100C5000020000EA0200A0E304129FE5980281E589
:100C60000EF0A0E1F8119FE5801291E50100A0E1EE
:100C70000000A0E1D8119FE5001091E5011081E28C
:100C8000010BA0E1200BA0E1C8119FE5001091E548
:100C9000010050E10300001A0210A0E3C0219FE50B
:100CA000941282E5140000EAB4119FE5881291E5E0
:100CB000B4219FE598319FE5003093E50310C2E72A
:100CC0008C119FE5001091E5011081E280219FE5E4
:100CD000001082E578119FE5001091E5011BA0E16D
:100CE000211BA0E168219FE5001082E570119FE5BE
:100CF000801291E51F0011E3DDFFFF1A0EF0A0E165
:100D000004E02DE50000A0E154019FE5A40290E578
:100D1000070010E31300000A44019FE5A40290E5D8
:100D2000070000E2010050E30600000A020050E361
:100D30000600000A030050E30600000A040050E326
:100D40000600001A040000EAC5FFFFEB040000EAF9
:100D500096FFFFEB020000EA0000A0E10000A0E126
:100D60000000A0E1E7FFFFEA04F09DE404E02DE5C8
:100D7000EC009FE5980290E5020010E30000001AE5
:100D80008AFFFFEB04F09DE430402DE90040A0E134
:100D90000150A0E1C0009FE5000090E5011080E255
:100DA000B4009FE5002090E5001080E5B4009FE5C9
:100DB0000240C0E7A0009FE5000090E5000BA0E125
:100DC000200BA0E190109FE5000081E588009FE5E1
:100DD000000090E584109FE5001091E5010050E1CE
:100DE0000100001A0000E0E33080BDE8DEFFFFEB09
:100DF0000000A0E3FBFFFFEA0010A0E10000A0E17B
:100E000050209FE5002092E544309FE5003093E5B7
:100E1000030052E1F9FFFF0A38209FE5002092E528
:100E2000013082E22C209FE500C092E5003082E58F
:100E300034209FE50C00D2E718209FE5002092E5C2
:100E4000022BA0E1222BA0E108309FE5002083E5E2
:100E50000EF0A0E148080200440802004008020029
:100E60003C08020000C0FF7F3C0002003C0402007E
:100E70000EF0A0E10EF0A0E10F002DE904E02DE559
:100E80003CD04DE244008DE238008DE52C009FE51A
:100E900000008FE020008DE524009FE500008FE03A
:100EA00024008DE51C009FE504308DE238208DE2A2
:100EB00040109DE5310000EB3CD08DE214F09DE444
:100EC000F0FEFFFFA019000090080200ADFFFFEA4E
:100ED00038402DE90010A0E10000D0E5014081E29A
:100EE00030509FE5000050E30600000A0510A0E125
:100EF000A4FFFFEB010070E33880BD080100D4E4DB
:100F0000000050E3F8FFFF1A0510A0E13840BDE8EB
:100F10000A00A0E39BFFFFEA900802000F002DE902
:100F200004E02DE524D04DE200008DE508008DE5BC
:100F30000000E0E304008DE50000A0E30C008DE577
:100F400030009FE530108DE210108DE500008FE03D
:100F50001C008DE520009FE500008FE020008DE55E
:100F60000D00A0E110208DE22C109DE55B0400EB4C
:100F700024D08DE214F09DE42419000054190000DF
:100F8000804D2DE97C002DE903002DE90000D1E51D
:100F900008D04DE20360A0E10250A0E10080A0E390
:100FA000017081E2000050E3D901000A250050E3FE
:100FB0000500000A1C2096E508109DE50FE0A0E161
:100FC00002F0A0E1018088E2CE0100EA0020A0E367
:100FD000082086E50040A0E300B0A0E301A0D7E42C
:100FE0002B005AE302408403FBFFFF0A060000CAFD
:100FF00020005AE304408403F7FFFF0A23005AE36A
:1010000008408403F4FFFF0A060000EA2D005AE3BB
:10101000400FC40301408003EFFFFF0A30005AE392
:10102000404F8403ECFFFF0A0000A0E32A005AE3CC
:101030000700001A001095E5040091E4001085E512
:10104000000050E3000060B2014024B201A0D7E4E8
:10105000090000EA30104AE20A0051E30800002AC1
:10106000000180E080008AE001A0D7E4300040E287
:1010700030104AE20A0051E3F8FFFF3A000050E363
:101080000000A0B32E005AE304008DE51600001AFC
:1010900001A0D7E40000A0E32A005AE30400001AEC
:1010A000001095E5040091E4001085E501A0D7E467
:1010B000090000EA30104AE20A0051E30800002A61
:1010C000000180E080008AE001A0D7E4300040E227
:1010D00030104AE20A0051E3F8FFFF3A000050E303
:1010E000010000BA104084E3080086E56C005AE372
:1010F0000200000A4C005AE30800001A040000EA4B
:101100000000D7E56C0050E3404084030170870283
:101110000000000A204084E301A0D7E40F0000EAA9
:1011200068005AE30600001A0000D7E5680050E3A3
:10113000804084130170870201A0D7E4404E8403ED
:10114000060000EA6A005AE34040840301A0D70485
:101150000200000A74005AE37A005A1301A0D7046F
:1011600067005AE35101000A110000CA63005AE304
:101170002000000A080000CA00005AE3017047027C
:101180006001000A45005AE347005A134701000A6C
:1011900058005AE3A700000A190000EA64005AE365
:1011A0001501000A65005AE366005A133F01000A60
:1011B000130000EA70005AE3D400000A060000CAD7
:1011C00069005AE30C01000A6E005AE33200000A7B
:1011D0006F005AE3DA00000A090000EA73005AE3DC
:1011E0004C00000A75005AE3ED00000A78005AE34B
:1011F000AB00000A020000EA000095E504A090E4BC
:10120000000085E504009DE5010014E301B040E223
:101210000E00001A400F14E32000A0033000A013BA
:10122000FF0000E200008DE501B05BE20700004A2C
:101230001C2096E500009DE508109DE5018088E2F0
:101240000FE0A0E102F0A0E101B05BE2F7FFFF5A7E
:101250001C2096E508109DE50A00A0E10FE0A0E142
:1012600002F0A0E1018088E2010014E32501000AF8
:1012700001405BE22301004A1C2096E508109DE531
:10128000018088E22000A0E30FE0A0E102F0A0E1ED
:10129000014054E2F7FFFF5A1A0100EA400E14E33E
:1012A0000400000A000095E5041090E4000085E5C4
:1012B0000080C1E5130100EA800014E30600000A83
:1012C000001095E528C4A0E1040091E4001085E534
:1012D0000080C0E501C0C0E50A0100EA400014E357
:1012E0000600000A000095E5C81FA0E1044090E454
:1012F000000085E5041084E5008084E5010100EA32
:10130000000095E5200014E3041090E4000085E55A
:10131000008081E5FB0000EA000095E5100014E381
:10132000041090E4000085E500108DE50A00000A35
:1013300000A0A0E3080096E5000000EA01A08AE210
:1013400000005AE1070000AA00109DE50A10D1E74D
:10135000000051E3F8FFFF1A020000EA00009DE5DB
:10136000290600EB00A0A0E104009DE5010014E3C4
:101370000A0040E004008DE51300001A400F14E35A
:101380002000A0033000A013FFB000E204009DE5A0
:10139000010040E204008DE5000050E30A0000BABD
:1013A0001C2096E508109DE5018088E20B00A0E175
:1013B0000FE0A0E102F0A0E104009DE5010040E2A1
:1013C00004008DE5000050E3F4FFFFAA00B0A0E3A5
:1013D00000005AE3080000DA00109DE50CE08FE2FF
:1013E0000B00D1E71C2096E508109DE502F0A0E176
:1013F00001B08BE20A005BE1F6FFFFBA0A8088E0E9
:10140000010014E3BF00000A04009DE5014050E222
:10141000BC00004A1C2096E508109DE5018088E28A
:101420002000A0E30FE0A0E102F0A0E1014054E2BF
:10143000F7FFFF5AB30000EA000095E5400014E30F
:1014400004B09004000085050500000A081080E241
:10145000001085E5001090E5040090E5300086E579
:101460002C1086E5400E14E3FFB00B120200001AA8
:10147000800014E30BB8A0112BB8A011AE0F8FE2BF
:10148000080014E300005B13240086E5AF0F8F1201
:10149000AD0F8F02100014E3404FC413040086E523
:1014A0008F0000EA000095E5400014E304B09004CA
:1014B000000085050500000A081080E2001085E59F
:1014C000001090E5040090E5300086E52C1086E5DC
:1014D000400E14E3FFB00B120200001A800014E368
:1014E0000BB8A0112BB8A011990F8FE2080014E3DC
:1014F00000005B13240086E59A0F8F12920F8F0273
:10150000100014E3404FC413040086E5740000EAA1
:10151000000095E5080014E304B090E4000085E5C0
:101520008B0F8FE2240086E58F0F8F12860F8F02BC
:10153000040086E50800A0E3080086E5104084E387
:10154000670000EA000095E5400014E304B0900451
:10155000000085050500000A081080E2001085E5FE
:10156000001090E5040090E5300086E52C1086E53B
:10157000400E14E3FFB00B120200001A800014E3C7
:101580000BB8A0112BB8A011080014E36E0F8F0246
:10159000760F8F12100014E3404FC413040086E549
:1015A0004F0000EA000095E5400014E304B0900409
:1015B000000085050500000A081080E2001085E59E
:1015C000001090E5040090E5300086E52C1086E5DB
:1015D000400E14E3FFB00B120200001A800014E367
:1015E0000BB8A0112BB8A011570F8FE2100014E315
:1015F000404FC413040086E5390000EA400014E3BC
:101600001100000A001095E52C3086E2080081E206
:10161000000085E5030091E8030083E8542F8FE282
:101620000C0092E8020050E00310D1E0150000AA7F
:101630002C1086E2030091E8000070E20010E1E265
:101640002C2086E2030082E80C0000EA000095E509
:10165000400E14E304B090E4000085E50BBCA0113B
:101660004BBCA0110200001A800014E30BB8A011BB
:101670004BB8A01100005BE300B06BB2010000AA00
:10168000F4008FE2050000EA020014E3EC008F1280
:101690000200001A040014E3AC008F02E0008F1275
:1016A000100014E3404FC413040086E50C0000EA68
:1016B000804F84E3100014E30600A00308008605B1
:1016C000000095E500B0A0E3081080E2001085E579
:1016D000001090E5040090E5180086E5141086E5FA
:1016E000042086E504009DE50B30A0E1280086E596
:1016F000004086E508009DE50620A0E10A10A0E173
:10170000200000EB088080E00100D7E4000050E3F7
:1017100025FEFF1A201096E508009DE50FE0A0E1E8
:1017200001F0A0E1000050E30800A00118D08DE214
:10173000F001BDE80000E013008CBDE83031323329
:1017400034353637383941424344454600000000BD
:101750003058000030313233343536373839616231
:1017600063646566000000003078000040000000FF
:101770003000000000000000000000002D0000000C
:101780002B00000020000000804D2DE970002DE9A5
:101790000070A0E10100A0E1008092E50010E0E30C
:1017A00028D04DE20C1082E5101082E5840F18E37A
:1017B0000110A0030240A0E10810840550104FE280
:1017C000670050E30060A0E30050A0E30C00000AB3
:1017D0001B0000CA640050E37800000A050000CA3C
:1017E000450050E3470050130500000A580050E33D
:1017F0000700001A280000EA650050E36600501355
:101800000300001A0420A0E108108DE2670500EB38
:101810000060A0E1800F18E328A094E58E00000A84
:101820000C0094E500B0A0E3000050E301B040C21A
:10183000100094E5000050E30B0080C001B040C2EE
:10184000890000EA700050E31300000A0E0000CA8D
:10185000690050E35900000A6F0050E3ECFFFF1AE3
:10186000400018E34600000AFC104FE22CA094E56B
:1018700030B094E50C0091E80A00A0E103005BE1C0
:10188000020050014800000A2B0000EA750050E3F6
:101890004A00000A780050E3DDFFFF1A400018E319
:1018A0001900000A4E1F4FE22CA094E530B094E5D9
:1018B0000C0091E80A00A0E103005BE10200500186
:1018C000D3FFFF0A0B10A0E1241094E50F000AE2F9
:1018D0000010D1E70600A0E108208DE20010C2E769
:1018E0002A02A0E10BAE80E15F0F4FE20C0090E80E
:1018F0002BB2A0E103005BE10A00A0E1020050016D
:10190000016086E2C2FFFF0AEDFFFFEA000053E339
:10191000BFFFFF0A08A08DE20F1003E2240094E548
:101920002332B0E10110D0E70600A0E1016086E2B9
:101930000010CAE7B6FFFF0AF6FFFFEA0B10A0E1AE
:10194000241094E507000AE20010D1E70600A0E1A8
:1019500008208DE20010C2E7AA01A0E18BAE80E171
:101960007D0F4FE20C0090E8ABB1A0E103005BE11A
:101970000A00A0E102005001016086E2EEFFFF1ABA
:10198000090000EA000053E30700000A08A08DE206
:10199000070003E2301080E20600A0E10010CAE771
:1019A000016086E2A331B0E1F8FFFF1A080018E3F6
:1019B00008009415010040120800841594FFFFEA06
:1019C000400018E31800000A971F4FE22CA094E58E
:1019D00030B094E50C0091E80A00A0E103005BE15F
:1019E000020050018AFFFF0A0B10A0E10A00A0E1EB
:1019F000100400EB01B0A0E100A0A0E10600A0E10E
:101A0000301082E208208DE20010C2E7A80F4FE2FA
:101A10000C0090E80A00A0E103005BE10200500125
:101A2000016086E27AFFFF0AEEFFFFEA000053E35F
:101A300077FFFF0A08A08DE20300A0E1280400EB75
:101A4000302081E20610A0E10120CAE7016086E2B1
:101A50000030B0E16EFFFF0AF6FFFFEA080094E5F0
:101A600006B040E000005BE300B0A0B3040094E5E2
:101A7000650400EB06108BE0010080E0400F18E3E6
:101A80000100180300A04AE00B00001A2000A0E3A8
:101A900004008DE501A05AE20700004A1C2094E5ED
:101AA00004009DE5015085E20710A0E10FE0A0E1F0
:101AB00002F0A0E101A05AE2F7FFFF5A041094E5FA
:101AC0000100D1E404108DE5000050E30900000A94
:101AD0001C2094E50710A0E10FE0A0E102F0A0E1D6
:101AE00004109DE5015085E20100D1E404108DE56C
:101AF000000050E3F5FFFF1A010018E30E00001A82
:101B0000400F18E32000A0033000A013FF0000E204
:101B100004008DE501A05AE20700004A1C2094E56C
:101B200004009DE5015085E20710A0E10FE0A0E16F
:101B300002F0A0E101A05AE2F7FFFF5A800F18E37C
:101B40003400000A00B0A0E3000056E3490000DAC8
:101B500008008DE20B00D0E73C0050E30700000ACC
:101B60003E0050E32200001A100094E5010040E21C
:101B7000100084E5000050E3220000BA100000EAE3
:101B80000C0094E5010040E20C0084E5000050E305
:101B90001C0000BA1C2094E5015085E20710A0E16A
:101BA0003000A0E30FE0A0E102F0A0E10C0094E51A
:101BB000010040E20C0084E5000050E3F4FFFFAABE
:101BC000100000EA1C2094E5015085E20710A0E116
:101BD0003000A0E30FE0A0E102F0A0E1100094E5E6
:101BE000010040E2100084E5000050E3F4FFFFAA8A
:101BF000040000EA1C2094E50710A0E10FE0A0E13A
:101C000002F0A0E1015085E201B08BE206005BE149
:101C1000CEFFFFBA170000EA01B05BE20700004AFE
:101C20001C2094E5015085E20710A0E13000A0E3FC
:101C30000FE0A0E102F0A0E101B05BE2F7FFFF5A84
:101C4000065085E001B046E2000056E3090000DAE4
:101C500008608DE20B00D6E71C2094E50710A0E198
:101C60000FE0A0E102F0A0E10B00A0E1000050E3D2
:101C700001B04BE2F6FFFFCA010018E30900000AB9
:101C800001605AE20700004A1C2094E5015085E2F9
:101C90000710A0E12000A0E30FE0A0E102F0A0E126
:101CA000016056E2F7FFFF5A0500A0E128D08DE25F
:101CB000F001BDE8008CBDE8804D2DE970002DE9F4
:101CC00004B092E518D04DE210B08DE5086092E5C1
:101CD0000050A0E10240A0E10180A0E102700BE20F
:101CE0007A0300EB000057E30070E0E314008DE599
:101CF0007E00000AB90F8FE2041090E500A090E585
:101D00000C108DE508B08DE514009DE5017087E2AB
:101D100000B090E50C1094E50500A0E10FE0A0E113
:101D200001F0A0E10010DBE7010011E3F5FFFF1A6D
:101D3000010070E318D08D02F001BD08008CBD08D1
:101D400008B09DE5000056E360BECBE32B0000DA4F
:101D500040001BE30C00000A2B0050E30200000AC5
:101D60002D0050E30800001A40BE8BE30C1094E5F0
:101D7000017087E20500A0E10FE0A0E101F0A0E121
:101D8000016046E2000056E31C0000DA300050E338
:101D90001A00001A0C1094E580BF8BE3016046E244
:101DA000017087E20500A0E10FE0A0E101F0A0E1F1
:101DB000000056E30E0000DA780050E3580050139C
:101DC0000B00001A000058E3100058131D00001A01
:101DD0000C1094E580BFCBE3016046E2017087E21E
:101DE0000500A0E10FE0A0E101F0A0E11080A0E378
:101DF000140000EA000058E30880A003110000EA84
:101E0000000058E30A80A0030E0000EA80BF8BE3C5
:101E1000016046E20820A0E10A00A0E10C109DE567
:101E2000020300EB04209DE5017087E202A090E030
:101E3000C21FA1E00C108DE50C1094E50500A0E197
:101E40000FE0A0E101F0A0E1000056E3040000DA99
:101E50000810A0E1A80200EB04008DE5000050E3AB
:101E6000E9FFFFAA101094E50500A0E10FE0A0E152
:101E700001F0A0E1800F1BE318D08D02F001BD0836
:101E80000100E003008CBD0801001BE31300001AF1
:101E900040001BE30B00000A400E1BE30A00A001F8
:101EA0000C109D050200000A0C109DE500007AE26E
:101EB0000010E1E2002094E5043092E4002084E583
:101EC000030083E8050000EA000094E5041090E4B4
:101ED000000084E50C009DE5040081E500A081E59B
:101EE0000700A0E118D08DE2F001BDE8008CBDE84C
:101EF00000A0A0E314009DE5017087E200B090E52A
:101F00000C1094E50500A0E10FE0A0E101F0A0E1D4
:101F10000010DBE7010011E3F5FFFF1A010070E399
:101F200018D08D02F001BD08008CBD0810B09DE5F1
:101F3000000056E360BECBE32D0000DA40001BE357
:101F40000C00000A2B0050E30200000A2D0050E3B1
:101F50000800001A40BE8BE30C1094E5017087E284
:101F60000500A0E10FE0A0E101F0A0E1016046E280
:101F7000000056E31E0000DA300050E31C00001A97
:101F80000C1094E580BF8BE3016046E2017087E2AC
:101F90000500A0E10FE0A0E101F0A0E1000056E3A0
:101FA000100000DA780050E3580050130D00001ABA
:101FB000000058E3100058131800001A0C1094E5A4
:101FC00080BFCBE3016046E2017087E20500A0E13B
:101FD0000FE0A0E101F0A0E11080A0E30F0000EA13
:101FE0000000000000000000000058E30880A0038B
:101FF0000A0000EA000058E30A80A003070000EA94
:10200000980A2AE00C1094E50500A0E180BF8BE35C
:10201000016046E2017087E20FE0A0E101F0A0E17B
:10202000000056E3030000DA0810A0E1320200EBE2
:10203000000050E3F1FFFFAA101094E50500A0E1B5
:102040000FE0A0E101F0A0E1800F1BE318D08D02AA
:10205000F001BD080100E003008CBD0801001BE396
:102060001A00001A40001BE30D00000A000094E56E
:10207000400E1BE300A06A12041090E4000084E507
:10208000800E1BE300A0C1151000001A08001BE31E
:1020900000A0810500A0C1152AC4A01101C0C1156E
:1020A0000A0000EA000094E5800E1BE3041090E4AF
:1020B000000084E500A0C1150400001A08001BE31D
:1020C00000A0810500A0C1152AC4A01101C0C1153E
:1020D0000700A0E118D08DE2F001BDE8008CBDE85A
:1020E000804D2DE970002DE930D04DE20150A0E186
:1020F0000240A0E100A0A0E30080A0E30070A0E106
:10210000720200EB2C008DE50160D5E4000056E37F
:1021100030D08D02F001BD080A00A001008CBD087E
:10212000250056E33300000A2C009DE5000090E5F1
:102130000610D0E7010011E31B00000A0110D5E4EE
:102140000110D0E7010011E3FBFFFF1A0060A0E1DE
:102150000C1094E50700A0E1015045E20FE0A0E17A
:1021600001F0A0E10000D6E7010010E30900000A39
:102170002C009DE5018088E2006090E50C1094E55C
:102180000700A0E10FE0A0E101F0A0E10000D6E728
:10219000010010E3F5FFFF1A101094E50700A0E11D
:1021A0000FE0A0E101F0A0E1D6FFFFEA0C1094E5FA
:1021B0000700A0E10FE0A0E101F0A0E1060050E17E
:1021C0000180880200B0A0E1CEFFFF0A101094E564
:1021D0000700A0E10FE0A0E101F0A0E130D08DE226
:1021E00001007BE300005A030A00A0110000E00395
:1021F000F001BDE8008CBDE80000D5E50060A0E37B
:1022000000B0A0E32A0050E3015085020110D5E49C
:102210000160A003300041E20A0050E31300002AED
:1022200018269FE5040000EA02005BE130D08DC271
:10223000F001BDC80A00A0C1008CBDC80B018BE035
:10224000800081E030B040E200005BE330D08DB22E
:10225000F001BDB80A00A0B1008CBDB80110D5E4F2
:10226000106086E3300041E20A0050E3EDFFFF3AE0
:10227000100016E380B4E0036C0051E30500001A7F
:102280000110D5E46C0051E30460861302608603FC
:102290000110D504120000EA4C0051E320608603CF
:1022A0000110D5040E00000A680051E30500001A71
:1022B0000110D5E4680051E308608613806E860340
:1022C0000110D504060000EA6A0051E302608603AB
:1022D0000110D5040200000A740051E37A00511382
:1022E0000110D504046084E508B084E50B00A0E18A
:1022F000660051E36A00000A110000CA5B0051E366
:10230000E000000A070000CA250051E32200000A8D
:10231000450051E3470051136100000A580051E3A2
:10232000D100000A180000EA630051E32D00000A02
:10233000640051E35300000A650051E35800000AAD
:10234000110000EA700051E37900000A080000CA99
:10235000670051E35200000A690051E35400000A8B
:102360006E0051E35900000A6F0051E36900000A52
:10237000050000EA730051E37500000A750051E39F
:10238000B400000A780051E3B700000A30D08DE2B3
:10239000F001BDE80A00A0E1008CBDE80C1094E556
:1023A0000700A0E10FE0A0E101F0A0E1250050E36B
:1023B000018088020060A0E152FFFF0A101094E53E
:1023C0000700A0E10FE0A0E101F0A0E1010076E349
:1023D00030D08DE200005A030A00A0110000E00393
:1023E000F001BDE8008CBDE8100016E301B0A003C9
:1023F0000010A0E328108DE5010016E30300001A89
:10240000000094E5041090E4000084E528108DE5B8
:1024100000005BE330D08D02F001BD080A00A0018E
:10242000008CBD08140000DA0C1094E5018088E2ED
:102430000700A0E10FE0A0E101F0A0E1010070E3DE
:102440000500001A30D08DE200005AE30A00A01106
:102450000000E003F001BDE8008CBDE8010016E3D8
:102460000200001A28109DE50100C1E428108DE546
:1024700001B04BE200005BE3EAFFFFCA010016E394
:1024800001A08A021FFFFFEA400086E3040084E502
:102490000700A0E10420A0E10A10A0E305FEFFEB85
:1024A000D90000EA0410A0E10700A0E1400200EB1F
:1024B000D50000EA400086E3040084E50700A0E1BF
:1024C0000420A0E10010A0E3FAFDFFEBCE0000EA3B
:1024D000000094E5800E16E304B090E4000084E56B
:1024E0000080CB1507FFFF1A080016E30080CB150C
:1024F00028C4A01101C0CB1502FFFF1A020016E389
:1025000000808B05FFFEFF0AC81FA0E104108BE5C9
:1025100000808BE5FBFEFFEA400086E3040084E5D3
:102520000700A0E10420A0E10810A0E3E1FDFFEB1B
:10253000B50000EA800EC6E30E00C0E3040084E5A7
:102540000700A0E10420A0E11010A0E3D9FDFFEBFB
:10255000AD0000EA0020A0E328208DE500B0E0E314
:1025600020008DE524608DE52C009DE501B08BE217
:10257000002090E50700A0E11C208DE50C1094E5FB
:102580000FE0A0E101F0A0E11C209DE50010A0E11A
:102590000000D2E7010010E3F2FFFF1A010071E32F
:1025A0000000E0039800000A24009DE5010010E30C
:1025B0001300001A000094E5042090E4000084E574
:1025C00028208DE50E0000EA20009DE5010040E294
:1025D00020008DE524009DE5010010E30200001AB3
:1025E00028209DE50110C2E428208DE50C1094E51B
:1025F00001B08BE20700A0E10FE0A0E101F0A0E153
:102600000010A0E120009DE5000050E3060000DA84
:10261000010071E30400000A2C009DE5000090E534
:102620000100D0E7010010E3E6FFFF0A101094E577
:102630000700A0E10FE0A0E101F0A0E124009DE58A
:10264000010010E328209D050000A0030000C20542
:102650000B00A0E16C0000EA0420A0E10A10A0E356
:102660000700A0E193FDFFEB670000EA400086E36E
:10267000040084E50700A0E10420A0E11010A0E31D
:102680008CFDFFEB600000EA0100D5E40030A0E320
:102690000010A0E35E0050E30130A0030300D50664
:1026A0000CC08DE20020A0E301218CE7011081E243
:1026B000080051E3FAFFFFBA01E0A0E3000050E395
:1026C00030D08D02F001BD080A00A001008CBD08C9
:1026D000C01FA0E1A11D80E0C122A0E10CC08DE2DD
:1026E00002119CE7820240E001E0A0E31E0081E1CC
:1026F00002018CE70E00D5E65D0050E3EEFFFF1A05
:10270000000053E30700000A0000A0E30CC08DE2C4
:1027100000119CE70110E0E100118CE7010080E26C
:10272000080050E3F9FFFFBA041094E500B0A0E3FD
:1027300004108DE5081094E500108DE504109DE56A
:10274000010011E30200001A000094E504B090E4D7
:10275000000084E50000A0E308008DE50C1094E57E
:102760000700A0E10FE0A0E101F0A0E1010070E3AB
:102770002500000A0D0000EA00109DE5011041E26D
:1027800000108DE504109DE5010011E30000001A22
:102790000100CBE408009DE510E08FE2010080E23B
:1027A00008008DE50C1094E50700A0E101F0A0E120
:1027B00000109DE5000051E30A0000DA010070E31B
:1027C0000800000AC01FA0E1A11D80E0C112A0E125
:1027D0000C208DE2012192E7811240E00130A0E35C
:1027E000130112E1E3FFFF1A101094E50700A0E1C6
:1027F0000FE0A0E101F0A0E104109DE5010011E36C
:102800000020A0030020CB0508009DE5000050E358
:10281000060000AA30D08DE2010070E300005A03E8
:102820000A00A0110000E003F001BDE8008CBDE843
:10283000010016E301A08A02008088E031FEFFEA71
:10284000CCCCCC0C0C0090E5800000E20EF0A0E1B6
:10285000AE0000EB360000EB50F7FFEB2E0000EA75
:1028600001402DE96B0000EB0140BDE8000000EAEB
:102870000000E0E39AF8FFEA042090E50010A0E1F0
:10288000000052E30600000A003091E50100D3E4A5
:10289000000050E301204212042081150030811510
:1028A0000EF0A0110100A0E30C0081E50000E0E3C0
:1028B0000EF0A0E1041090E5000051E30C00000AC6
:1028C0000C3090E5002090E5000053E30800001A6A
:1028D000083090E5020053E10500000A011081E292
:1028E000041080E5012042E2002080E50000A0E322
:1028F0000EF0A0E10000E0E30EF0A0E13A0050E3AA
:10290000300040322020C0E3410052E33700422231
:10291000010050E10000E0230EF0A0E110402DE99D
:102920000040A0E1FFFFFFEB0400A0E11040BDE884
:10293000CAFFFFEAF0402DE90CD04DE20150A0E1C2
:102940000040A0E1140100EB0000A0E300408DE591
:1029500004508DE5FFFFFFEB08008DE5C8009FE503
:102960000D10A0E100008FE0FFFFFFEB0050A0E1A1
:102970000160A0E103009DE8FFFFFFEBFFFFFFEB1D
:10298000FFFFFFEB0010A0E30000A0E3FFFFFFEB61
:102990000070A0E1C50000EB0040A0E1207080E5E0
:1029A0000000A0E30010A0E3B10000EB011080E202
:1029B000241084E50010A0E30000A0E3FFFFFFEB7C
:1029C000280084E50000A0E30010A0E3FFFFFFEB78
:1029D0002C0084E50000A0E30010A0E3FFFFFFEB64
:1029E000300084E5FFFFFFEBFFFFFFEBFFFFFFEB96
:1029F000FFFFFFEBFFFFFFEBFFFFFFEBFFFFFFEB37
:102A0000FFFFFFEB0500A0E10610A0E10CD08DE276
:102A1000F000BDE804F09DE408402DE9FFFFFFEB66
:102A2000FFFFFFEBFFFFFFEB0880BDE8C0000000E9
:102A30000030A0E3A00000EA30402DE90A2050E277
:102A40000030D1E220E1A0E101EF8EE10E0050E084
:102A50002111C1E020E2A0E101EE8EE10E0090E044
:102A60002112A1E020E4A0E101EC8EE10E0090E053
:102A70002114A1E020E8A0E101E88EE10E0090E041
:102A80002118A1E0010090E00010A1E2A001A0E166
:102A9000810E80E1A111A0E10141A0E1204F84E17C
:102AA000005190E00140A4E0055095E00440A4E00E
:102AB000052052E00430D3E00030A0E30A20824237
:102AC0003080BD48010090E20010A1E23080BDE8F6
:102AD00010402DE9750000EB240080E21080BDE875
:102AE000940100000A1040E2200140E0200280E052
:102AF000200480E0200880E0A001A0E1002180E027
:102B0000821051E0010080520A1081420EF0A0E1D3
:102B10000E50A0E1650000EB05E0A0E10040A0E15F
:102B20000D10A0E10A30A0E10700C0E360D080E210
:102B300010402DE9F1F7FFEB1040BDE807D0C1E3ED
:102B40000060A0E30070A0E30080A0E300B0A0E379
:102B500004C0A0E1C009ACE8C009ACE8C009ACE819
:102B6000C009ACE813402DE90000A0E30010A0E389
:102B7000FFFFFFEB401081E2012080E0442F82E262
:102B80001C2084E5181084E50100A0E3100084E512
:102B90001340BDE8140084E50010A0E10EF0A0E1B0
:102BA00010402DE903002DE9400000EB0040A0E1BA
:102BB0000300BDE81C3094E503304DE0142094E59B
:102BC000002081E500E082E003005EE10A00008A67
:102BD0000E3093E06330A0E10730C3E3401D8EE286
:102BE000071081E20710C1E3030051E10310A08147
:102BF000020041E0141084E51080BDE80020A0E14F
:102C00000000A0E3FFFFFFEB1080BDE801C080E201
:102C1000030010E30500000A0110D0E4000051E3B6
:102C20000C0040000EF0A001030010E3F9FFFF1AB2
:102C300038209FE5041090E4023041E00130C3E108
:102C4000820313E1FAFFFF0A0C0040E0FF0011E3EA
:102C5000030040020EF0A001FF0C11E3020040024D
:102C60000EF0A001FF0811E3010040020EF0A0E108
:102C70000101010108402DE90100B0E10010D0156B
:102C8000000051130400000A18108FE2190000EB35
:102C9000000050E30000A0130880BD1808009FE565
:102CA00000008FE00880BDE84300000060010000E4
:102CB00000009FE50EF0A0E11809020070402DE928
:102CC00000E0A0E1920E8CE092C121E0931E21E091
:102CD0007080BDE80000A0E30EF0A0E10100E0E399
:102CE0000EF0A0E110402DE9F0FFFFEB040080E2C0
:102CF0001080BDE801010101030010E3030011038E
:102D00001700001A00402DE91CE01FE5042090E4A4
:102D1000043091E40EC042E002C0CCE18EC31CE05E
:102D200003005201F8FFFF0A0040BDE8030CA0E1D8
:102D3000020C50E0FF0E1C030700001A0308A0E17C
:102D4000020850E0FF0C1C030300001A0304A0E17A
:102D5000020450E0FF081C03020053006000A011B1
:102D60000EF0A0E10120D0E40130D1E4010052E3F3
:102D7000030052210400001A0120D0E40130D1E404
:102D8000010052E303005221F5FFFF0A030042E075
:102D90000EF0A0E1010000EF0EF0A0E110402DE9DF
:102DA000CFFFFFEB0010A0E3001080E51080BDE82E
:102DB000C7FFFFEAC8FFFFEA0D506C65737320611F
:102DC0006E79206B657970616420627574746F6EC2
:102DD00020746F20446973706C6179206B65797021
:102DE000616420636861726163746572202E2E2EA7
:102DF0002E2E2E2E2E2E2E2E0D0A0000100100003B
:102E000043000000F8FFFFFF0040404040404040CA
:102E100040404141414141404040404040404040AD
:102E20004040404040404040400502020202020251
:102E300002020202020202020220202020202020A0
:102E400020202002020202020202909090909090B4
:102E50001010101010101010101010101010101072
:102E600010101010020202020202888888888888E6
:102E700008080808080808080808080808080808D2
:102E800008080808020202024000000000000000DA
:102E90000000000000000000000000000000000032
:102EA0000000000000000000000000000000000022
:102EB0000000000000000000000000000000000012
:102EC0000000000000000000000000000000000002
:102ED00000000000000000000000000000000000F2
:102EE00000000000000000000000000000000000E2
:102EF00000000000000000000000000000000000D2
:102F000000000000000000000000000000000000C1
:102F10000000000000000000482B0000000002003C
:102F200000000000482B000000000200000000002C
:102F3000482B00000000000000000200000000001C
:102F4000000002007809000044C1FF7F0200000079
:102F500040C1FF7F0200000049C1FF7FFCFF0080ED
:102F6000FFFF62F76302FFFFFFFFFFFFFFFFFFFFAF
:102F7000FFFFFFFFFFFFFFFFFFFFFFFFFFFFFFFF61
:102F8000FFFFFFFFFFFFFFFFFFFFFFFFFFFFFFFF51
:102F9000FFFFFFFFFFFFFFFFFFFFFFFFFFFFFFFF41
:102FA000FFFFFFFFFFFFFFFFFFFFFFFFFFFFFFFF31
:102FB000FFFFFFFFFFFFFFFFFFFFFFFFFFFFFFFF21
:102FC000FFFFFFFFFFFFFFFFFFFFFFFFFFFFFFFF11
:102FD000FFFFFFFFFFFFFFFFFFFFFFFFFFFFFFFF01
:102FE000FFFFFFFFFFFFFFFFFFFFFFFFFFFFFFFFF1
:102FF000FFFFFFFFFFFFFFFFFFFFFFFFFFFFFFFFE1
:10300000FFFFFFFFFFFFFFFFFFFFFFFFFFFFFFFFD0
:10301000FFFFFFFFFFFFFFFFFFFFFFFFFFFFFFFFC0
:10302000FFFFFFFFFFFFFFFFFFFFFFFFFFFFFFFFB0
:10303000FFFFFFFFFFFFFFFFFFFFFFFFFFFFFFFFA0
:10304000FFFFFFFFFFFFFFFFFFFFFFFFFFFFFFFF90
:10305000FFFFFFFFFFFFFFFFFFFFFF00000000007B
:10306000000000000000000000002000000001003F
:103070004000000002008000000004000001000089
:1030800008000002000010000004000020000008FA
:103090000000400000100000800000000000000060
:1030A0000000000000000000000000000000000020
:1030B0000000000000000000000000000000000010
:1030C0000000000000000000000000000000000000
:1030D00000000000000000000002000000000000EE
:1030E00000000000000000000000000020080000B8
:1030F00000000000080000010000000000000000C7
:1031000000000000000000000000000000000000BF
:1031100000000000000000000000000000000000AF
:10312000000000000000000000000000000000009F
:10313000000000000000000000000000000000008F
:10314000000000000000000000000000000000007F
:103150000000000000E80000000000000000000087
:10316000000000000000000000000000000000005F
:10317000000000000000000000000000000000004F
:10318000000000000000000000000000000000003F
:10319000000000000000000000000000000000002F
:1031A000000000000000000000000000000000001F
:1031B000000000000000000000000000000000000F
:1031C00000000000000000000000000000000000FF
:1031D00000000040000000000000000000000000AF
:1031E00000000000000000200800000000000008AF
:1031F00000000100000000000000000000000000CE
:1032000000000000000000000000000000000000BE
:1032100000000000000000000000000000000000AE
:10322000000000000000000000000000000000009E
:10323000000000000000000000000000000000008E
:10324000000000000000000000000000000000205E
:10325000E00000000000000000000000000000008E
:10326000000000000000000000000000000000005E
:10327000000000000000000000000000000000004E
:10328000000000000000000000000000000000003E
:10329000000000000000000000000000000000002E
:1032A000000000000000000000000000000000001E
:1032B000000000000000000000000000000000000E
:1032C00000000000000000000000000000000000FE
:1032D00000000000000000000000000000000000EE
:1032E00000000000000000000000000000000000DE
:1032F00000000000000000000000000000000000CE
:1033000000000000000000000000000000000000BD
:1033100000000000000000000000000000000000AD
:10332000000000000000000000000000000000009D
:10333000000000000000000000000000000000008D
:103340000000000000000000000000FE7E00000001
:10335000000000000000000000000000000000006D
:10336000000000000000000000000000000000005D
:10337000000000000000000000000000000000004D
:10338000000000000000000000000000000000003D
:10339000000000000000000000000000000000002D
:1033A000000000000000000000000000000000001D
:1033B000000000000000000000000000000000000D
:1033C00000000000000000000000000000000000FD
:1033D00000000000000000000000000000000000ED
:1033E00000000000000000000000000000000000DD
:1033F00000000000000000000000000000000000CD
:1034000000000000000000000000000000000000BC
:1034100000000000000000000000000000000000AC
:10342000000000000000000000000000000000009C
:10343000000000000000000000000000000000008C
:10344000000000FC0060F37E0000000000000000AF
:10345000000000000000000000000000000000006C
:10346000000000000000000000000000000000005C
:10347000000000000000000000000000000000004C
:10348000000000000000000000000000000000003C
:10349000000000000000000000000000000000002C
:1034A000000000000000000000000000000000001C
:1034B0000000000000000000000000000000080004
:1034C00000000000000000000000000000000000FC
:1034D00000000000000000000000000000000000EC
:1034E00000000000000000000000000000000000DC
:1034F00000000000000000000000000000000000CC
:1035000000000000000000000000000000000000BB
:1035100000000000000000000000000000000000AB
:10352000000000000000000000000000000000009B
:103530000000000000000000000000000000FC008F
:10354000E0F37E00010000001000020408102000DB
:103550000408102040000810204080001020408007
:103560000001204080000102408000010204800030
:1035700001020408000102040810000204081020DF
:1035800000000000000000081020408000102040D3
:103590008000012040800001024080000102048080
:1035A00000010204080001020408100002040810CF
:1035B00000000408100000000820000000000020A7
:1035C00000800000024080000100008080000202B4
:1035D000040001010408100002040810200004087F
:1035E000082040000810204080001020404080004B
:1035F00010208080000140800001020400000000D3
:1036000000008000020408080002040810200004E2
:1036100008102040000810104040001020208000BA
:103620000120408000010220400001020080800053
:10363000020000000102000000FC00A0FF7E000963
:10364000000000900012244890200124489020415E
:103650000248902041820490204182040920418246
:10366000040912408204091224800409122448002B
:103670000912244890001224489020010000000004
:10368000000048902041820490204182040920419A
:103690008204091240820409122480040912244879
:1036A00000091224489000122448900000244890F9
:1036B00000000048000000000000000000000000C2
:1036C0000000000000000080040012240000090037
:1036D00000000000000000000000004800000000A2
:1036E00000000000000000004082049020018004DF
:1036F000090000000000000000000000008004003D
:103700000000480000000000000000000000000071
:1037100000009000400200002001000000000000B6
:1037200000002041020000000080040000000000B2
:1037300000000000FC0060E8000000000000000045
:103740000000000000000000000000000000000079
:103750000000000000000000000000000000000069
:103760000000000000000000000000000000000059
:103770000000000000000000000000000000000049
:103780000000000000000000000000000000000039
:103790000000000000000000000000000000000029
:1037A0000000000000000000000000000000000019
:1037B00002000000000000000800000000081000E7
:1037C0000000000000000000080040400001004030
:1037D0004000010120800000010480000101000080
:1037E00000000004000000000000000000020410BF
:1037F0000020000000000000000000404000000029
:103800002000800000200000000104408000000033
:103810000000010000040800000200080000000091
:103820000000000000001000000000200000000068
:1038300000A0FB00000000000000000000000000ED
:103840000000000000000000000000000000000078
:103850000000000000000000000000000000000068
:103860000000000000000000000000000000000058
:103870000000000000000000000000000000000048
:103880000000000000000000000000000000000038
:103890000000000000000000000000000000000028
:1038A0000000000000000000000000000000000018
:1038B00000020000002000020000000000080020BC
:1038C00000000000000000000020000000000000D8
:1038D000000000000000000000020880000200005C
:1038E00000000000040000000000001000000000C4
:1038F0000000000000100000000010008000000226
:103900000080000100000000000004000000010031
:10391000000000020004001000000010100000046D
:10392000000000000008000000000000E0EE0000C1
:103930000000000000000000000000000000000087
:103940000000000000000000000000000000000077
:103950000000000000000000000000000000000067
:103960000000000000000000000000000000000057
:103970000000000000000000000000000000000047
:103980000000000000000000000000000000000037
:103990000000000000000000000000000000000027
:1039A0000000000000000000000000000000000017
:1039B0000000000000000000000000000000000007
:1039C00000000000000000000000000000000000F7
:1039D00000000000000000000000000000000000E7
:1039E00000000000000000000000000000000000D7
:1039F00000000000000000000000000000000000C7
:103A000000000000000000000000000000000000B6
:103A100000000000000000000000000000000000A6
:103A20000000000000000000FE0000000000000098
:103A30000000000000000000000000000000000086
:103A40000000000000000000000000000000000076
:103A50000000000000000000000000000000000066
:103A60000000000000000000000000000000000056
:103A70000000000000000000000000000000000046
:103A80000000000000000000000000000000000036
:103A90000000000000000000000000000000000026
:103AA0000000000000000000000000000000000016
:103AB0000000000000000000000000000000000006
:103AC00000000000000000000000000000000000F6
:103AD00000000000000000000000000000000000E6
:103AE00000000000000000000000000000000000D6
:103AF0000040000000000000000000000000000086
:103B000000000000000000000000000000000000B5
:103B100000000000000000000000000000000000A5
:103B2000000000FA0000000000000000000000009B
:103B30000000000000000000000000000000000085
:103B40000000000000000000000000000000000075
:103B50000000000000000000000000000000000065
:103B60000000000000000000000000000000000055
:103B70000000000000000000000000000000000045
:103B80000000000000000000000000000000000035
:103B90000000000000000000000000000000000025
:103BA0000000020000000000000000000000000013
:103BB00000000000000000000000004000000000C5
:103BC0000000000000008000000000000000000075
:103BD00000000000000800000000000000000000DD
:103BE00000000000000000000000002000000000B5
:103BF00000000000000000000000000000000000C5
:103C000000000000000400000000000000000000B0
:103C10000000000000000000000000000000F600AE
:103C20000000000000000000000000000000000094
:103C30000000000000000000000000000000000084
:103C40000000000000000000000000000000000074
:103C50000000000000000000000000000000000064
:103C60000000000000000000000000000000000054
:103C70000000000000000000000000000000000044
:103C80000000000000000000000000000000000034
:103C9000000000000000000000000000000000081C
:103CA0000000000000100000000000000000000004
:103CB0000000000000000000000002000000000002
:103CC00000000000000400000002000000000000EE
:103CD00000000000000000000000000000000000E4
:103CE00000000000000000000000000000000000D4
:103CF00000000000000000000000000000000000C4
:103D000000000000000000000000000000000000B3
:103D1000000000000000000080FB00000000000028
:103D20000000000000000000000000000000000093
:103D30000000000000000000000000000000000083
:103D40000000000000000000000000000000000073
:103D50000000000000000000000000000000000063
:103D60000000000000000000000000000000000053
:103D70000000000000000000000000000000000043
:103D80000000000000000000000000000000000033
:103D900000000200000000000000000020000400FD
:103DA00000000000000020000000100040000000A3
:103DB000200080000100400000000004000001021B
:103DC00000080001000000000000000000000000EA
:103DD000081020000000000000000000000080002B
:103DE000000000000001024080000000048000008C
:103DF0000004000001020000100000000810000094
:103E0000000000200000080020000000000000006A
:103E100000000080F500000000000000000000002D
:103E20000000000000000000000000000000000092
:103E30000000000000000000000000000000000082
:103E40000000000000000000000000000000000072
:103E50000000000000000000000000000000000062
:103E60000000000000000000000000000000000052
:103E70000000000000000000000000000000000042
:103E80000000000000000000000000000000000032
:103E90000000000000000000000008000000000812
:103EA0000000000000000000000001000000000011
:103EB0000000800000020000000000000000000080
:103EC00004000000000000000000000000004000AE
:103ED0000000000000000000400000000000800022
:103EE00000000000000102000000010000000000CE
:103EF00000000000000200000000000000100000B0
:103F00000000000000000010200000000000A0E5FC
:103F100000000000000000000000000000000000A1
:103F20000000000000000000000000000000000091
:103F30000000000000000000000000000000000081
:103F40000000000000000000000000000000000071
:103F50000000000000000000000000000000000061
:103F60000000000000000000000000000000000051
:103F70000000000000000000000000000000000041
:103F80000000000000000000000000000000000031
:103F90000000000000000000000000000000000021
:103FA0000000008000000000000000000000000091
:103FB0000000000000000000000000000000000001
:103FC00000000000000400000000000000000000ED
:103FD00000002000000000000000000000000000C1
:103FE00000000000000000000000000000080000C9
:103FF00000000000200000000000000000000000A1
:1040000000000000000000000020F8000000000098
:1040100000000000000000000000000000000000A0
:104020000000000000000000000000000000000090
:104030000000000000000000000000000000000080
:104040000000000000000000000000000000000070
:104050000000000000000000000000000000000060
:104060000000000000000000000000000000000050
:104070000000000000000000000000000000000040
:104080000000000000000000000000000000000030
:104090000000000000000000000000000000000020
:1040A0000000000000000000000000000000000010
:1040B0000000000000000000000000000000000000
:1040C00000000000000000000000000000000000F0
:1040D00000000000000000000000000000000000E0
:1040E00000000000000000000000000000000000D0
:1040F00000000000000000000000000000000000C0
:104100000000000000FE00000000000000000000B1
:10411000000000000000000000000000000000009F
:10412000000000000000000000000000000000008F
:10413000000000000000000000000000000000007F
:10414000000000000000000000000000000000006F
:10415000000000000000000000000000000000005F
:10416000000000000000000000000000000000004F
:10417000000000000000000000000000000000003F
:10418000000000000000000000000000000000002F
:10419000000000000000000000000000000000001F
:1041A000000000000000000000000000000000000F
:1041B00000000000000000000000000000000000FF
:1041C00000000000000000000000000000000000EF
:1041D00000000000000000000000000000000000DF
:1041E00000000000000000000000000000000000CF
:1041F00000000000000000000000000000000000BF
:10420000FE000000000000000000000000000000B0
:10421000000000000000000000000000000000009E
:10422000000000000000000000000000000000008E
:10423000000000000000000000000000000000007E
:10424000000000000000000000000000000000006E
:10425000000000000000000000000000000000005E
:10426000000000000000000000000000000000004E
:10427000000000000000000000000000000000003E
:10428000000000000000000000000000000000002E
:10429000000000000000000000000000000000001E
:1042A000000000000000000000000000000000000E
:1042B00000000000000000000000000000000000FE
:1042C00000000000000000000000000000000000EE
:1042D00000000000000000000000000000000000DE
:1042E00000000000000000000000000000000000CE
:1042F0000000000000000000000000FE00000000C0
:1043000000000000000000000000000000000000AD
:10431000000000000000000000000000000000009D
:10432000000000000000000000000000000000008D
:10433000000000000000000000000000000000007D
:10434000000000000000000000000000000000006D
:10435000000000000000000000000000000000005D
:10436000000000000000000000000000000000004D
:10437000000000000000000000000000000000003D
:10438000000000000000000000000000000000002D
:10439000000000000000000000000000000000001D
:1043A000000000000000000000000000000000000D
:1043B00000000000000000000000000000000000FD
:1043C00000000000000000000000000000000000ED
:1043D00000000000000000000000000000000000DD
:1043E00000000000000000000000000000000000CD
:1043F000000000000000FE000000000000000000BF
:1044000000000000000000000000000000000000AC
:10441000000000000000000000000000000000009C
:10442000000000000000000000000000000000008C
:10443000000000000000000000000000000000007C
:10444000000000000000000000000000000000006C
:10445000000000000000000000000000000000005C
:10446000000000000000000000000000000000004C
:104470000002000000001002000000000000020224
:1044800000000000400000000000000000001000DC
:10449000600100000000006000004000800000009B
:1044A000000000000000000000000000000000020A
:1044B00040000000000000000000001008000004A0
:1044C00000200400000000C0080000000000800080
:1044D0000000008003000080000042000000000097
:1044E0008000000000000400000000000008000040
:1044F00000F80000000000000000000000000000C4
:1045000000000000000000000000000000000000AB
:10451000000000000000000000000000000000009B
:10452000000000000000000000000000000000008B
:10453000000000000000000000000000000000007B
:10454000000000000000000000000000000000006B
:10455000000000000000000000000000000000005B
:10456000000000000000000000000000000000004B
:104570000000000800000000000000000000000033
:104580000400000000000000000000000002000025
:10459000000000000000000010000000000000000B
:1045A000000000000000000000000000000000000B
:1045B00000000000000000000000000000200000DB
:1045C00000000010000000000000010000000000DA
:1045D00000000010000000000000000000000000CB
:1045E0000000000000000000000000A0E00000004B
:1045F00000000000000000000000000000000000BB
:1046000000000000000000000000000000000000AA
:10461000000000000000000000000000000000009A
:10462000000000000000000000000000000000008A
:10463000000000000000000000000000000000007A
:10464000000000000000000000000000000000006A
:10465000000000000000000000000000000000005A
:104660000000000000000002000000000000000048
:10467000000000000000000000000000000000003A
:1046800000040000000000200000000000080000FE
:1046900000000001000000000000000000200000F9
:1046A0000000000000000800000000000000000002
:1046B00000000000000001000000000000002000D9
:1046C00000000000000000000000200000000000CA
:1046D00000000000000000000000000000000000DA
:1046E00000000000000080E3000000000000000067
:1046F00000000000000000000000000000000000BA
:1047000000000000000000000000000000000000A9
:104710000000000000000000000000000000000099
:104720000000000000000000000000000000000089
:104730000000000000000000000000000000000079
:104740000000000000000000000000000000000069
:104750000000000000000000000000000000000059
:104760000000000000000000000000000000000049
:104770000000000000000000000000000800000031
:104780000000000200000000800000000000200087
:104790000000000000000000000000000000000019
:1047A0008000000000000000000000000004000085
:1047B0000000004000000000002000000000001089
:1047C00000000000000010000000000008000000D1
:1047D00000000000000000002000000000000000B9
:1047E00000E0EA00000000000000000000000000FF
:1047F00000000000000000000000000000000000B9
:1048000000000000000000000000000000000000A8
:104810000000000000000000000000000000000098
:104820000000000000000000000000000000000088
:104830000000000000000000000000000000000078
:104840000000000000000000000000000000000068
:104850000000000000000000000000000000000058
:1048600000000000000000000000800000000000C8
:104870000000000000000000000000000000000038
:104880000000000000000000000000000000000028
:104890000200000000000000000000000200000014
:1048A0000000000000000000000000000200000006
:1048B00000000000000000000000000000000000F8
:1048C0000001000000008000000000000400000063
:1048D000000000100000000000000000E0F50000F3
:1048E00000000000000000000000000000000000C8
:1048F00000000000000000000000000000000000B8
:1049000000000000000000000000000000000000A7
:104910000000000000000000000000000000000097
:104920000000000000000000000000000000000087
:104930000000000000000000000000000000000077
:104940000000000000000000000000000000000067
:104950000000000000000000000000000000000057
:104960000000000000000000000000000000000047
:104970000000040000000000000000000000000033
:1049800000004000000000000000000000000000E7
:1049900000000000000000400000000000000000D7
:1049A0000000000000000000000000000000000007
:1049B00000000000000000000000000001000000F6
:1049C00000000000000000000000000000000000E7
:1049D0000000000000000000EA00000000000000ED
:1049E00000000000000000000000000000000000C7
:1049F00000000000000000000000000000000000B7
:104A000000000000000000000000000000000000A6
:104A10000000000000000000000000000000000096
:104A20000000000000000000000000000000000086
:104A30000000000000000000000000000000000076
:104A40000000000000000000000000000000000066
:104A50000000000000000000000000000000000056
:104A60000000000000000000000000000000000046
:104A70000000040000000000000000000000000032
:104A80000000000000000000000000000000000026
:104A9000000000000000000000000000000008000E
:104AA0000000000000000000000000000000000006
:104AB00000000000000000000000000000080000EE
:104AC00000000000000000000000000000000000E6
:104AD000000040F2000000000000000000000000A4
:104AE00000000000000000000000000000000000C6
:104AF00000000000000000000000000000000000B6
:104B000000000000000000000000000000000000A5
:104B10000000000000000000000000000000000095
:104B20000000000000000000000000000000000085
:104B30000000000000000000000000000000000075
:104B40000000000000000000000000000000000065
:104B50000000000002000000000040000000000013
:104B60000000000000000000000000000000000045
:104B70000000000000000000000000000000000035
:104B80000000000000000000000000000000000025
:104B90000000000000000000000000000000000015
:104BA0000000000000000000000000000000000005
:104BB00000000000000000000000000000000000F5
:104BC0000000000000000000004000000020FE0087
:104BD00000000000000000000000000000000000D5
:104BE00000000000000000000000000000000000C5
:104BF00000000000000000000000000000000000B5
:104C000000000000000000000000000000000000A4
:104C10000000000000000000000000000000000094
:104C20000000000000000000000000000000000084
:104C30000000000000000000000000000000000074
:104C40000000000000000000000000000000000064
:104C50000000000000000000000000000000000054
:104C6000000000000000000000000000000000083C
:104C700000000000000000000080000000000000B4
:104C80000000000000000000010000000000000023
:104C90000000000000000000000000000000000014
:104CA00008000000000000020000000000000000FA
:104CB00000000000000000000000000000000000F4
:104CC0000000000000000000A0ED00000000000057
:104CD00000000000000000000000000000000000D4
:104CE00000000000000000000000000000000000C4
:104CF00000000000000000000000000000000000B4
:104D000000000000000000000000000000000000A3
:104D10000000000000000000000000000000000093
:104D20000000000000000000000000000000000083
:104D30000000000000000000000000000000000073
:104D400000000000000000000000800000000000E3
:104D5000000008000000000000000000000040000B
:104D6000000000000000000000000800000000003B
:104D7000000000000000000400000000000000002F
:104D80000000000000000000000000000000100013
:104D90000000000000000000000000000000000013
:104DA0000000000000000000000000000000000003
:104DB00000000000000000000000000000000000F3
:104DC00080000080E2000000000000000000000001
:104DD00000000000000000000000000000000000D3
:104DE00000000000000000000000000000000000C3
:104DF00000000000000000000000000000000000B3
:104E000000000000000000000000000000000000A2
:104E10000000000000000000000000000000000092
:104E20000000000000000000000000000000000082
:104E30000000000000000000000000000000000072
:104E40000000000000000000000000000000000062
:104E50000000000200000000000000000000080048
:104E600000000000000000000080000000000000C2
:104E70000000000000000000000000000000000032
:104E80000000000000000000000000000000000022
:104E9000800000000000080000000000000000008A
:104EA00000000000000000000001000000000010F1
:104EB000000000000000000000000000000000F5FD
:104EC00000000000000000000000000000000000E2
:104ED00000000000000000000000000000000000D2
:104EE00000000000000000000000000000000000C2
:104EF00000000000000000000000000000000000B2
:104F000000000000000000000000000000000000A1
:104F10000000000000000000000000000000000091
:104F20000000000000000000000000000000000081
:104F30000000000000000000000000000000000071
:104F40000000000000000000000000000000000061
:104F50000000000000000000000000000000000051
:104F60000000000000000000000000000000000041
:104F70000000000000000000000000000000000031
:104F80000000000000000000000000000000000021
:104F90000000000000000000000000000000000011
:104FA0000000000000000000000000000000000001
:104FB00000000000000000000000FE0000000000F3
:104FC00000000000000000000000000000000000E1
:104FD00000000000000000000000000000000000D1
:104FE00000000000000000000000000000000000C1
:104FF00000000000000000000000000000000000B1
:1050000000000000000000000000000000000000A0
:105010000000000000000000000000000000000090
:105020000000000000000000000000000000000080
:105030000000000000000000000000000000000070
:105040000000000000000000000000000000000060
:105050000000000000000000000000000000000050
:105060000000000000000000000000000000000040
:105070000000000000000000000000000000000030
:105080000000000000000000000000000000000020
:105090000000000000000000000000000000000010
:1050A0000000000000000000000000000000000000
:1050B0000000000000FE00000000000000000000F2
:1050C00000000000000000000000000000000000E0
:1050D00000000000000000000000000000000000D0
:1050E00000000000000000000000000000000000C0
:1050F00000000000000000000000000000000000B0
:10510000000000000000000000000000000000009F
:10511000000000000000000000000000000000008F
:10512000000000000000000000000000000000007F
:10513000000000000000000000000000000000006F
:10514000000000000000000000000000000000005F
:10515000000000000000000000000000000000004F
:10516000000000000000000000000000000000003F
:10517000000000000000000000000000000000002F
:10518000000000000000000000000000000000001F
:10519000000000000000000000000000000000000F
:1051A00000000000000000000000000000000000FF
:1051B000FE000000000000000000000000000000F1
:1051C00000000000000000000000000000000000DF
:1051D00000000000000000000000000000000000CF
:1051E00000000000000000000000000000000000BF
:1051F00000000000000000000000000000000000AF
:10520000000000000000000000000000000000009E
:10521000000000000000000000000000000000008E
:10522000000000000000000000000000000000007E
:10523000000000000000000000000000000000006E
:10524000000000000000000000000000000000005E
:10525000000000000000000000000000000000004E
:10526000000000000000000000000000000000003E
:10527000000000000000000000000000000000002E
:10528000000000000000000000000000000000001E
:10529000000000000000000000000000000000000E
:1052A0000000000000000000000000FE0000000000
:1052B00000000000000000000000000000000000EE
:1052C00000000000000000000000000000000000DE
:1052D00000000000000000000000000000000000CE
:1052E00000000000000000000000000000000000BE
:1052F00000000000000000000000000000000000AE
:10530000000000000000000000000000000000009D
:10531000000000000000000000000000000000008D
:10532000000000000000000000000000000000007D
:10533000000000000000000000000000000000006D
:10534000000000000000000000000000000000005D
:10535000000000000000000000000000000000004D
:10536000000000000000000000000000000000003D
:10537000000000000000000000000000000000002D
:10538000000000000000000000000000000000001D
:10539000000000000000000000000000000000000D
:1053A000000000000000FE000000000000000000FF
:1053B00000000000000000000000000000000000ED
:1053C00000000000000000000000000000000000DD
:1053D00000000000000000000000000000000000CD
:1053E00000000000000000000000000000000000BD
:1053F00000000000000000000000000000000000AD
:10540000000000000000000000000000000000009C
:10541000000000000000000000000000000000008C
:10542000000000000000000000000000000000007C
:10543000000000000000000000000000000000006C
:10544000000000000000000000000000000000005C
:10545000000000000000000000000000000000004C
:10546000000000000000000000000000000000003C
:10547000000000000000000000000000000000002C
:10548000000000000000000000000000000000001C
:10549000000000000000000000000000000000000C
:1054A00000FE0000000000000000000000000000FE
:1054B00000000000000000000000000000000000EC
:1054C00000000000000000000000000000000000DC
:1054D00000000000000000000000000000000000CC
:1054E00000000000000000000000000000000000BC
:1054F00000000000000000000000000000000000AC
:10550000000000000000000000000000000000009B
:10551000000000000000000000000000000000008B
:10552000000000000000000000000000000000007B
:10553000000000000000000000000000000000006B
:10554000000000000000000000000000000000005B
:10555000000000000000000000000000000000004B
:10556000000000000000000000000000000000003B
:10557000000000000000000000000000000000002B
:10558000000000000000000000000000000000001B
:10559000000000000000000000000000FE180000F5
:1055A00000000000000000000000000000000000FB
:1055B00000000000000000000000000000000000EB
:1055C00000000000000000000000000000000000DB
:1055D00000000000000000000000000000000000CB
:1055E00000000000000000000000000000000000BB
:1055F00000000000000000000000000000000000AB
:10560000000000000000000000000000000000009A
:10561000000000000000000000000000000000008A
:10562000000000000000000000000000000000007A
:10563000000000000000000000000000000000006A
:10564000000000000000000000000000000000005A
:10565000000000000000000000000000000000004A
:10566000000000000000000000000000000000003A
:10567000000000000000000000000000000000002A
:10568000000000000000000000000000000000001A
:10569000000000003000A0F5400000000000000005
:1056A00000000000000000000000000000000000FA
:1056B00000000000000000000000000000000000EA
:1056C00000000000000000000000000000000000DA
:1056D00000000000000000000000000000000000CA
:1056E00000000000000000000000000000000000BA
:1056F00000000000000000000000000000000000AA
:105700000000000000000000000000000000000099
:105710000000000000000000000000000000000089
:105720000000000000000000000000000000000079
:105730000000000000000000000000000000000069
:105740000000000000000000000000000000000059
:105750000000000000000000000000000000000049
:105760000000000000000000000000000000000039
:105770000000000000000000000000000000000029
:105780000000000000000000000000000000008099
:1057900000C0F60000000000000000000000000053
:1057A00000000000000000000000000000000000F9
:1057B00000000000000000000000000000000000E9
:1057C00000000000000000000000000000000000D9
:1057D00000000000000000000000000000000000C9
:1057E00000000000000000000000000000000000B9
:1057F00000000000000000000000000000000000A9
:105800000000000000000000000000000000000098
:105810000000000000000000000000000000000088
:105820000000000000000000000000000000000078
:105830000000000000000000000000000000000068
:105840000000000000000000000000000000000058
:105850000000000000000000000000000000000048
:105860000000000000000000000000000000000038
:105870000000000000000000000000000000000028
:1058800000000000000000000000000000FE00001A
:105890000000000000000000000000000000000008
:1058A00000000000000000000000000000000000F8
:1058B00000000000000000000000000000000000E8
:1058C00000000000000000000000000000000000D8
:1058D00000000000000000000000000000000000C8
:1058E00000000000000000000000000000000000B8
:1058F00000000000000000000000000000000000A8
:105900000000000000000000000000000000000097
:105910000000000000000000000000000000000087
:105920000000000000000000000000000000000077
:105930000000000000000000000000000000000067
:105940000000000000000000000000000000000057
:105950000000000000000000000000000000000047
:105960000000000000000000000000000000000037
:105970000000000000000000000000000000000027
:105980000000000000000000FE0000000000000019
:105990000000000000000000000000000000000007
:1059A00000000000000000000000000000000000F7
:1059B00000000000000000000000000000000000E7
:1059C00000000000000000000000000000000000D7
:1059D00000000000000000000000000000000000C7
:1059E00000000000000000000000000000000000B7
:1059F00000000000000000000000000000000000A7
:105A00000000000000000000000000000000000096
:105A10000000000000000000000000000000000086
:105A20000000000000000000000000000000000076
:105A30000000000000000000000000000000000066
:105A40000000000000000000000000000000000056
:105A50000000000000000000000000000000000046
:105A60000000000000000000000000000000000036
:105A70000000000000000000000000000000000026
:105A8000000000FE00000000000000000000000018
:105A90000000000000000000000000000000000006
:105AA00000000000000000000000000000000000F6
:105AB00000000000000000000000000000000000E6
:105AC00000000000000000000000000000000000D6
:105AD00000000000000000000000000000000000C6
