:020000040000FA
:10000000050000EAFEFFFFEAFEFFFFEAFEFFFFEA4F
:10001000FEFFFFEAFEFFFFEAFEFFFFEA90429FE5D8
:1000200004404FE02C804FE288829FE588929FE554
:10003000048098E7049099E70500001A006098E5AD
:10004000090016E10000A0130010A0130020A01367
:100050000030A01364529FE564629FE564729FE5DF
:1000600064A29FE564B29FE564C29FE564D29FE508
:10007000045095E7046096E7047097E704A09AE7B8
:1000800004B09BE704C09CE704D09DE7006085E5D1
:1000900007F08FE00000A0E1074084E0009088E5D1
:1000A00000B08AE530B29FE530529FE530629FE5AF
:1000B00030829FE5045095E7046096E7048098E756
:1000C000084084E0074044E000D08CE504F08BE079
:1000D000006085E5106F11EE506C86E3106F01EE45
:1000E00004A29FE504A09AE740DC8AE20F002DE914
:1000F000F8119FE5F8219FE5012042E0041081E01E
:100100000A00A0E15D0000EB0A00A0E12A0000EB7C
:100110000F00BDE8DC619FE5046096E7D8E19FE54C
:1001200004E09EE70ED086E00F002DE9CC319FE57C
:10013000043093E70450B3E7045085E0C0019FE525
:10014000C0119FE5001041E0040080E00620A0E11E
:100150000FE0A0E105F0A0E1ACE19FE504E09EE73F
:10016000A8719FE50470D7E778019FE5044090E708
:100170000F00BDE898519FE598619FE5056056E046
:100180000050A0030080A0E30090A0E300A0A0E343
:1001900000B0A0E300C0A0E3000057E30070A0E3BC
:1001A00010DF11EE80D08D1350DCCDE310DF01EEB7
:1001B00015DF07EE0EF0A0E1BC01000010402DE9B4
:1001C0000040A0E110108FE2E4208FE23D1F07EE17
:1001D000081081E2020051E1FBFFFF3A0300B4E89E
:1001E000010010E300108005FBFFFF0A0100C0E3DF
:1001F0000128A0E12228A0E1211EA0E1090051E38D
:1002000001F18F30FEFFFFEA0B0000EA100000EA68
:10021000150000EAFAFFFFEAF9FFFFEAF8FFFFEA3C
:10022000F7FFFFEAF6FFFFEA043094E4003080E5D0
:10023000042052E2FBFFFFCAE7FFFFEA000052E39F
:100240001080BD080410A0E1024084E00B0000EB28
:10025000E1FFFFEA0600B4E8003090E5023003E079
:10026000030051E1FBFFFF1ADBFFFFEA160050E23B
:10027000D9FFFF3A040050E2FDFFFF2AD6FFFFEA54
:10028000F04F2DE92C2052E2020000BAF85FB1E8ED
:10029000F85FA0E8FAFFFFEA2C2082E2022081E06A
:1002A000010052E1F08FBDD8044091E4044080E4A5
:1002B000FAFFFFEA28000000280300002C030000DA
:1002C0001C03000020030000240300003003000092
:1002D00034030000380300003C030000D00000009D
:1002E0004403000048030000400300004C030000EA
:1002F00068030000E80300005003000054030000FE
:1003000060030000E80300003456110058030000A9
:10031000640300000000000000000000C0C0FF7F78
:10032000010B00400000004000C0FF7F0100000002
:1003300080C0FF7F83C6FF7FC0C0FF7F030B0040EC
:100340000000004090C0FF7F810600000000000018
:10035000000002000040000000000000000000005B
:10036000B80100000000000001C3FF7F1000000082
:100370000000040006060200010201005510000002
:100380001CC3FF7F0410000020C3FF7F102000006B
:1003900045C0FF7F080000000200000002000000CE
:1003A00094C0FF7F81060200C4C0FF7F030B804022
:1003B000D0C0FF7F8306001034C0FF7F0000000024
:1003C0003CC0FF7F0000000091C3FF7F08000000D9
:1003D000100000000000000080C3FF7F4800000004
:1003E000010000000000000001000000D42800000F
:1003F0002A0000EA060000EA090000EA1B0000EA01
:100400001E0000EA010000EA140000EA1F0000EAF2
:10041000FEFFFFEAFF5F2DE94C0100EBFF5FBDE847
:1004200004F05EE2FF5F2DE904005EE2000090E56B
:10043000FF14E0E3010000E0010050E30000000AC7
:10044000040000EA00104FE1C000E0E3001001E00A
:1004500001F061E1FFFFFFEAFF5FBDE80EF0B0E1F0
:10046000FF5F2DE94D0100EBFF5FBDE804F05EE2A8
:10047000FF5F2DE9210100EBFF5FBDE804F05EE2C4
:10048000FF5F2DE9250100EBFF5FBDE804F05EE2B0
:10049000FF402DE94C0100EBFF40BDE804F05EE2B7
:1004A000100F11EE38109FE5010090E1100F01EEE2
:1004B000D3F021E390DBA0E3D2F021E388DBA0E3DB
:1004C000D1F021E386DBA0E3DBF021E385DBA0E3D1
:1004D000D7F021E387DBA0E3D0F021E384DBA0E3C6
:1004E000000000EA7810008090808FE20F0098E80A
:1004F000080080E0081081E0082082E0083083E0F6
:1005000001B040E201C042E2010050E10E00000AE9
:100510007000B0E8050054E1FAFFFF0A010014E39F
:100520000B408410010015E30B508510020015E309
:10053000095085100350C5E3046056E2047094240A
:1005400004708524FBFFFF8AEEFFFFEA030052E1FF
:100550002E08000B0070A0E33000B2E8010014E3A5
:100560000C408410020014E3094084100340C4E3EB
:10057000045055E204708424FCFFFF8AF2FFFFEA76
:10058000082700002C2700002C270000442700002B
:10059000F0472DE907A0A0E30690A0E364809FE563
:1005A0000070A0E30560A0E358509FE50F0000EA4B
:1005B0000040C8E50170C8E50010A0E30400A0E118
:1005C000B10100EB2A0054E324A085050700000ACE
:1005D0002B0054E30400000A2D0054E32490850509
:1005E0000200000A20008FE2920100EB246085E502
:1005F0000000A0E3780100EBFF4000E20D0054E3AF
:10060000EAFFFF1AF087BDE8000002000D0A496EFC
:1006100076616C6964206F7065726174696F6E2CAD
:1006200020706C6561736520656E746572202B2C7B
:100630002D2C206F72202A202E0D0A001F402DE93C
:100640000040A0E3070000EA0410A0E104208DE2CE
:100650000100C2E70010A0E3014084E28A0100EB40
:10066000090054E3040000AA0000A0E35A0100EBD3
:10067000FF0000E20D0050E3F2FFFF1A0000A0E3CC
:1006800004108DE20400C1E710108FE204008DE237
:1006900004209FE5900100EB1F80BDE808000200E8
:1006A000257500000000A0E34B0100EA38402DE969
:1006B000B0401FE54102A0E3140084E58102A0E3FD
:1006C000180084E5C102A0E31C0084E5040080E278
:1006D000200084E51E0900EBCC0000EBC8008FE28F
:1006E000540100EBF0008FE2520100EB460F8FE265
:1006F000500100EBB0008FE24E0100EB0000A0E3E0
:10070000350100EB04511FE5040094E5000050E3BF
:100710000C00001A480F8FE2460100EBC6FFFFEB0A
:10072000080094E50C0084E5490F8FE2410100EBDD
:10073000C1FFFFEB080094E5100084E54B0F8FE24A
:100740003C0100EB91FFFFEB0C0094E5141094E5E5
:10075000000081E5100094E5181094E5000081E5A3
:10076000240094E51C1094E5000081E5140094E554
:10077000000090E52C0084E5200094E5000090E561
:10078000280084E5283094E500308DE50C3084E2C3
:100790000A0093E80520A0E1F4008FE2250100EBB8
:1007A000440F8FE2230100EBD6FFFFEA0D2A2A2A2D
:1007B0002A2A2A2A2A2A2A2A2A2A2A2A2A2A2A2A99
:1007C0002A2A2A2A2A2A2A2A2A2A2A2A2A2A2A2A89
:1007D0002A2A2A2A2A2A2A2A0D0A00000D2A20411A
:1007E0006C7465726120457863616C696275722012
:1007F000446576656C6F706D656E7420426F6172D2
:10080000642020202020202A0D0A00000D2A2048E4
:1008100075696E7320436F2E2C204C74642E205308
:100820006F434D61737465722044656D6F6E7374B0
:10083000726174696F6E202A0D0A0000456E74653E
:1008400072206669727374206F706572616E6420C5
:100850003A2020000D0A456E746572207365636F3F
:100860006E64206F706572616E64203A2020000013
:100870000D0A456E746572206F7065726174696FE0
:100880006E28202B202C202D206F72202A2029203A
:100890003A2020000D0A0A54686520726573756C51
:1008A00074206F66202575202573202575206973B7
:1008B000202575202E0D0A000D0A2A2A2A2A2A2A06
:1008C0002A2A2A2A2A2A2A2A2A2A2A2A2A2A2A2A88
:1008D0002A2A2A2A2A2A2A2A2A2A2A2A2A2A2A2A78
:1008E0002A2A2A2A2A0D0A0000008FE2D10000EAF3
:1008F000446174612061626F72740D0A000000002F
:1009000000008FE2CB0000EA4572726F72207072B5
:100910006566657463682061626F72740D0A000019
:1009200000008FE2C30000EA4572726F72206461BA
:1009300074612061626F72740D0A000000008FE222
:10094000BC0000EA4572726F72207377690D0A006D
:1009500000008FE2B70000EA4572726F7220756E78
:10096000646566696E656420696E7374727563741C
:10097000696F6E0D0A00000038009FE53F10A0E38C
:10098000041C80E50210A0E39C1C80E50310A0E39A
:10099000881C80E58410A0E3001C80E50EF0A0E137
:1009A00010009FE5101C90E5020051E34900000A89
:1009B00004008F129F00001A00C0FF7F556E6B6EFF
:1009C0006F776E20697271202523780000008FE216
:1009D000AE0000EA556E6578706563746564204604
:1009E00049510D0A0000000008402DE914109FE550
:1009F0001800A0E3563412EFFEFFFFEA0EF0A0E16C
:100A000004009FE50EF0A0E1260002006C09020040
:100A100010402DE904029FE50040A0E30C4080E572
:100A2000084080E5044080E5004080E5D1FFFFEB11
:100A3000EC019FE50310A0E3A81280E51B20A0E3D2
:100A4000B42280E5B84280E50720A0E3942280E547
:100A50009C1280E50110A0E3981280E51080BDE8AB
:100A6000BC319FE58C0293E5B8C19FE5AC019FE5E1
:100A7000090000EA001090E5002090E5011081E2F5
:100A8000001080E50210DCE7901283E5001090E58D
:100A9000011BA0E1211BA0E1001080E58C1293E571
:100AA0001F1001E20F0051E30300002A001090E53F
:100AB000042090E5020051E1EDFFFF1A001090E5DF
:100AC000040090E50220A0E3000051E19822831584
:100AD0009C2283050EF0A0E1F0402DE940719FE5D6
:100AE00038619FE540519FE50240A0E31D0000EA08
:100AF000A40293E5070000E2010050E380029305A1
:100B00000200000A020050E3D4FFFF0B150000EAC8
:100B10000C0096E50620A0E1010080E2000BA0E1B8
:100B2000081092E5200BA0E1010050E194428305FA
:100B30000C00000A880293E50C1092E50100C5E75D
:100B40000C0092E5010080E20C0082E50C0092E5C9
:100B5000000BA0E1200BA0E10C0082E5800293E5F0
:100B60001F0010E3E9FFFF1AA40297E50730A0E198
:100B7000070010E3DDFFFF1AF080BDE80010A0E1E0
:100B800098009FE504E02DE5042090E5043090E511
:100B9000012082E2042080E588209FE50310C2E75F
:100BA000041090E5011BA0E1211BA0E1041080E5E9
:100BB000041090E5000090E5000051E10000E00322
:100BC00004F09D0458009FE5980290E5020010E3B0
:100BD000A2FFFF0B0000A0E304F09DE43C309FE582
:100BE000080093E50C1093E5010050E1FBFFFF0ABC
:100BF000080093E5011080E2082093E50300A0E1DE
:100C0000081080E520009FE50200D0E7081093E57A
:100C1000011BA0E1211BA0E1081083E50EF0A0E17B
:100C20003000020000C0FF7F4000020040040200CC
:100C30000EF0A0E10EF0A0E10F002DE904E02DE59B
:100C40003CD04DE244008DE238008DE52C009FE55C
:100C500000008FE020008DE524009FE500008FE07C
:100C600024008DE51C009FE504308DE238208DE2E4
:100C700040109DE5310000EB3CD08DE214F09DE486
:100C800024FFFFFFA019000084080200BAFFFFEA5A
:100C900038402DE90010A0E10000D0E5014081E2DC
:100CA00030509FE5000050E30600000A0510A0E167
:100CB000B1FFFFEB010070E33880BD080100D4E410
:100CC000000050E3F8FFFF1A0510A0E13840BDE82E
:100CD0000A00A0E3A8FFFFEA840802000F002DE944
:100CE00004E02DE524D04DE200008DE508008DE5FF
:100CF0000000E0E304008DE50000A0E30C008DE5BA
:100D000030009FE530108DE210108DE500008FE07F
:100D10001C008DE520009FE500008FE020008DE5A0
:100D20000D00A0E110208DE22C109DE55B0400EB8E
:100D300024D08DE214F09DE4241900005419000021
:100D4000804D2DE97C002DE903002DE90000D1E55F
:100D500008D04DE20360A0E10250A0E10080A0E3D2
:100D6000017081E2000050E3D901000A250050E340
:100D70000500000A1C2096E508109DE50FE0A0E1A3
:100D800002F0A0E1018088E2CE0100EA0020A0E3A9
:100D9000082086E50040A0E300B0A0E301A0D7E46E
:100DA0002B005AE302408403FBFFFF0A060000CA3F
:100DB00020005AE304408403F7FFFF0A23005AE3AC
:100DC00008408403F4FFFF0A060000EA2D005AE3FE
:100DD000400FC40301408003EFFFFF0A30005AE3D5
:100DE000404F8403ECFFFF0A0000A0E32A005AE30F
:100DF0000700001A001095E5040091E4001085E555
:100E0000000050E3000060B2014024B201A0D7E42A
:100E1000090000EA30104AE20A0051E30800002A03
:100E2000000180E080008AE001A0D7E4300040E2C9
:100E300030104AE20A0051E3F8FFFF3A000050E3A5
:100E40000000A0B32E005AE304008DE51600001A3E
:100E500001A0D7E40000A0E32A005AE30400001A2E
:100E6000001095E5040091E4001085E501A0D7E4A9
:100E7000090000EA30104AE20A0051E30800002AA3
:100E8000000180E080008AE001A0D7E4300040E269
:100E900030104AE20A0051E3F8FFFF3A000050E345
:100EA000010000BA104084E3080086E56C005AE3B4
:100EB0000200000A4C005AE30800001A040000EA8D
:100EC0000000D7E56C0050E34040840301708702C6
:100ED0000000000A204084E301A0D7E40F0000EAEC
:100EE00068005AE30600001A0000D7E5680050E3E6
:100EF000804084130170870201A0D7E4404E840330
:100F0000060000EA6A005AE34040840301A0D704C7
:100F10000200000A74005AE37A005A1301A0D704B1
:100F200067005AE35101000A110000CA63005AE346
:100F30002000000A080000CA00005AE301704702BE
:100F40006001000A45005AE347005A134701000AAE
:100F500058005AE3A700000A190000EA64005AE3A7
:100F60001501000A65005AE366005A133F01000AA2
:100F7000130000EA70005AE3D400000A060000CA19
:100F800069005AE30C01000A6E005AE33200000ABD
:100F90006F005AE3DA00000A090000EA73005AE31E
:100FA0004C00000A75005AE3ED00000A78005AE38D
:100FB000AB00000A020000EA000095E504A090E4FE
:100FC000000085E504009DE5010014E301B040E266
:100FD0000E00001A400F14E32000A0033000A013FD
:100FE000FF0000E200008DE501B05BE20700004A6F
:100FF0001C2096E500009DE508109DE5018088E233
:101000000FE0A0E102F0A0E101B05BE2F7FFFF5AC0
:101010001C2096E508109DE50A00A0E10FE0A0E184
:1010200002F0A0E1018088E2010014E32501000A3A
:1010300001405BE22301004A1C2096E508109DE573
:10104000018088E22000A0E30FE0A0E102F0A0E12F
:10105000014054E2F7FFFF5A1A0100EA400E14E380
:101060000400000A000095E5041090E4000085E506
:101070000080C1E5130100EA800014E30600000AC5
:10108000001095E528C4A0E1040091E4001085E576
:101090000080C0E501C0C0E50A0100EA400014E399
:1010A0000600000A000095E5C81FA0E1044090E496
:1010B000000085E5041084E5008084E5010100EA74
:1010C000000095E5200014E3041090E4000085E59D
:1010D000008081E5FB0000EA000095E5100014E3C4
:1010E000041090E4000085E500108DE50A00000A78
:1010F00000A0A0E3080096E5000000EA01A08AE253
:1011000000005AE1070000AA00109DE50A10D1E78F
:10111000000051E3F8FFFF1A020000EA00009DE51D
:10112000290600EB00A0A0E104009DE5010014E306
:101130000A0040E004008DE51300001A400F14E39C
:101140002000A0033000A013FFB000E204009DE5E2
:10115000010040E204008DE5000050E30A0000BAFF
:101160001C2096E508109DE5018088E20B00A0E1B7
:101170000FE0A0E102F0A0E104009DE5010040E2E3
:1011800004008DE5000050E3F4FFFFAA00B0A0E3E7
:1011900000005AE3080000DA00109DE50CE08FE241
:1011A0000B00D1E71C2096E508109DE502F0A0E1B8
:1011B00001B08BE20A005BE1F6FFFFBA0A8088E02B
:1011C000010014E3BF00000A04009DE5014050E265
:1011D000BC00004A1C2096E508109DE5018088E2CD
:1011E0002000A0E30FE0A0E102F0A0E1014054E202
:1011F000F7FFFF5AB30000EA000095E5400014E352
:1012000004B09004000085050500000A081080E283
:10121000001085E5001090E5040090E5300086E5BB
:101220002C1086E5400E14E3FFB00B120200001AEA
:10123000800014E30BB8A0112BB8A011AE0F8FE201
:10124000080014E300005B13240086E5AF0F8F1243
:10125000AD0F8F02100014E3404FC413040086E565
:101260008F0000EA000095E5400014E304B090040C
:10127000000085050500000A081080E2001085E5E1
:10128000001090E5040090E5300086E52C1086E51E
:10129000400E14E3FFB00B120200001A800014E3AA
:1012A0000BB8A0112BB8A011990F8FE2080014E31E
:1012B00000005B13240086E59A0F8F12920F8F02B5
:1012C000100014E3404FC413040086E5740000EAE4
:1012D000000095E5080014E304B090E4000085E503
:1012E0008B0F8FE2240086E58F0F8F12860F8F02FF
:1012F000040086E50800A0E3080086E5104084E3CA
:10130000670000EA000095E5400014E304B0900493
:10131000000085050500000A081080E2001085E540
:10132000001090E5040090E5300086E52C1086E57D
:10133000400E14E3FFB00B120200001A800014E309
:101340000BB8A0112BB8A011080014E36E0F8F0288
:10135000760F8F12100014E3404FC413040086E58B
:101360004F0000EA000095E5400014E304B090044B
:10137000000085050500000A081080E2001085E5E0
:10138000001090E5040090E5300086E52C1086E51D
:10139000400E14E3FFB00B120200001A800014E3A9
:1013A0000BB8A0112BB8A011570F8FE2100014E357
:1013B000404FC413040086E5390000EA400014E3FE
:1013C0001100000A001095E52C3086E2080081E249
:1013D000000085E5030091E8030083E8542F8FE2C5
:1013E0000C0092E8020050E00310D1E0150000AAC2
:1013F0002C1086E2030091E8000070E20010E1E2A8
:101400002C2086E2030082E80C0000EA000095E54B
:10141000400E14E304B090E4000085E50BBCA0117D
:101420004BBCA0110200001A800014E30BB8A011FD
:101430004BB8A01100005BE300B06BB2010000AA42
:10144000F4008FE2050000EA020014E3EC008F12C2
:101450000200001A040014E3AC008F02E0008F12B7
:10146000100014E3404FC413040086E50C0000EAAA
:10147000804F84E3100014E30600A00308008605F3
:10148000000095E500B0A0E3081080E2001085E5BB
:10149000001090E5040090E5180086E5141086E53C
:1014A000042086E504009DE50B30A0E1280086E5D8
:1014B000004086E508009DE50620A0E10A10A0E1B5
:1014C000200000EB088080E00100D7E4000050E33A
:1014D00025FEFF1A201096E508009DE50FE0A0E12B
:1014E00001F0A0E1000050E30800A00118D08DE257
:1014F000F001BDE80000E013008CBDE8303132336C
:1015000034353637383941424344454600000000FF
:101510003058000030313233343536373839616273
:101520006364656600000000307800004000000041
:101530003000000000000000000000002D0000004E
:101540002B00000020000000804D2DE970002DE9E7
:101550000070A0E10100A0E1008092E50010E0E34E
:1015600028D04DE20C1082E5101082E5840F18E3BC
:101570000110A0030240A0E10810840550104FE2C2
:10158000670050E30060A0E30050A0E30C00000AF5
:101590001B0000CA640050E37800000A050000CA7E
:1015A000450050E3470050130500000A580050E37F
:1015B0000700001A280000EA650050E36600501397
:1015C0000300001A0420A0E108108DE2670500EB7B
:1015D0000060A0E1800F18E328A094E58E00000AC7
:1015E0000C0094E500B0A0E3000050E301B040C25D
:1015F000100094E5000050E30B0080C001B040C231
:10160000890000EA700050E31300000A0E0000CACF
:10161000690050E35900000A6F0050E3ECFFFF1A25
:10162000400018E34600000AFC104FE22CA094E5AD
:1016300030B094E50C0091E80A00A0E103005BE102
:10164000020050014800000A2B0000EA750050E338
:101650004A00000A780050E3DDFFFF1A400018E35B
:101660001900000A4E1F4FE22CA094E530B094E51B
:101670000C0091E80A00A0E103005BE102005001C8
:10168000D3FFFF0A0B10A0E1241094E50F000AE23B
:101690000010D1E70600A0E108208DE20010C2E7AB
:1016A0002A02A0E10BAE80E15F0F4FE20C0090E850
:1016B0002BB2A0E103005BE10A00A0E102005001AF
:1016C000016086E2C2FFFF0AEDFFFFEA000053E37C
:1016D000BFFFFF0A08A08DE20F1003E2240094E58B
:1016E0002332B0E10110D0E70600A0E1016086E2FC
:1016F0000010CAE7B6FFFF0AF6FFFFEA0B10A0E1F1
:10170000241094E507000AE20010D1E70600A0E1EA
:1017100008208DE20010C2E7AA01A0E18BAE80E1B3
:101720007D0F4FE20C0090E8ABB1A0E103005BE15C
:101730000A00A0E102005001016086E2EEFFFF1AFC
:10174000090000EA000053E30700000A08A08DE248
:10175000070003E2301080E20600A0E10010CAE7B3
:10176000016086E2A331B0E1F8FFFF1A080018E338
:1017700008009415010040120800841594FFFFEA48
:10178000400018E31800000A971F4FE22CA094E5D0
:1017900030B094E50C0091E80A00A0E103005BE1A1
:1017A000020050018AFFFF0A0B10A0E10A00A0E12D
:1017B000100400EB01B0A0E100A0A0E10600A0E150
:1017C000301082E208208DE20010C2E7A80F4FE23D
:1017D0000C0090E80A00A0E103005BE10200500168
:1017E000016086E27AFFFF0AEEFFFFEA000053E3A2
:1017F00077FFFF0A08A08DE20300A0E1280400EBB8
:10180000302081E20610A0E10120CAE7016086E2F3
:101810000030B0E16EFFFF0AF6FFFFEA080094E532
:1018200006B040E000005BE300B0A0B3040094E524
:10183000650400EB06108BE0010080E0400F18E328
:101840000100180300A04AE00B00001A2000A0E3EA
:1018500004008DE501A05AE20700004A1C2094E52F
:1018600004009DE5015085E20710A0E10FE0A0E132
:1018700002F0A0E101A05AE2F7FFFF5A041094E53C
:101880000100D1E404108DE5000050E30900000AD6
:101890001C2094E50710A0E10FE0A0E102F0A0E118
:1018A00004109DE5015085E20100D1E404108DE5AE
:1018B000000050E3F5FFFF1A010018E30E00001AC4
:1018C000400F18E32000A0033000A013FF0000E247
:1018D00004008DE501A05AE20700004A1C2094E5AF
:1018E00004009DE5015085E20710A0E10FE0A0E1B2
:1018F00002F0A0E101A05AE2F7FFFF5A800F18E3BF
:101900003400000A00B0A0E3000056E3490000DA0A
:1019100008008DE20B00D0E73C0050E30700000A0E
:101920003E0050E32200001A100094E5010040E25E
:10193000100084E5000050E3220000BA100000EA25
:101940000C0094E5010040E20C0084E5000050E347
:101950001C0000BA1C2094E5015085E20710A0E1AC
:101960003000A0E30FE0A0E102F0A0E10C0094E55C
:10197000010040E20C0084E5000050E3F4FFFFAA00
:10198000100000EA1C2094E5015085E20710A0E158
:101990003000A0E30FE0A0E102F0A0E1100094E528
:1019A000010040E2100084E5000050E3F4FFFFAACC
:1019B000040000EA1C2094E50710A0E10FE0A0E17C
:1019C00002F0A0E1015085E201B08BE206005BE18C
:1019D000CEFFFFBA170000EA01B05BE20700004A41
:1019E0001C2094E5015085E20710A0E13000A0E33F
:1019F0000FE0A0E102F0A0E101B05BE2F7FFFF5AC7
:101A0000065085E001B046E2000056E3090000DA26
:101A100008608DE20B00D6E71C2094E50710A0E1DA
:101A20000FE0A0E102F0A0E10B00A0E1000050E314
:101A300001B04BE2F6FFFFCA010018E30900000AFB
:101A400001605AE20700004A1C2094E5015085E23B
:101A50000710A0E12000A0E30FE0A0E102F0A0E168
:101A6000016056E2F7FFFF5A0500A0E128D08DE2A1
:101A7000F001BDE8008CBDE8804D2DE970002DE936
:101A800004B092E518D04DE210B08DE5086092E503
:101A90000050A0E10240A0E10180A0E102700BE251
:101AA0007A0300EB000057E30070E0E314008DE5DB
:101AB0007E00000AB90F8FE2041090E500A090E5C7
:101AC0000C108DE508B08DE514009DE5017087E2EE
:101AD00000B090E50C1094E50500A0E10FE0A0E156
:101AE00001F0A0E10010DBE7010011E3F5FFFF1AB0
:101AF000010070E318D08D02F001BD08008CBD0814
:101B000008B09DE5000056E360BECBE32B0000DA91
:101B100040001BE30C00000A2B0050E30200000A07
:101B20002D0050E30800001A40BE8BE30C1094E532
:101B3000017087E20500A0E10FE0A0E101F0A0E163
:101B4000016046E2000056E31C0000DA300050E37A
:101B50001A00001A0C1094E580BF8BE3016046E286
:101B6000017087E20500A0E10FE0A0E101F0A0E133
:101B7000000056E30E0000DA780050E358005013DE
:101B80000B00001A000058E3100058131D00001A43
:101B90000C1094E580BFCBE3016046E2017087E260
:101BA0000500A0E10FE0A0E101F0A0E11080A0E3BA
:101BB000140000EA000058E30880A003110000EAC6
:101BC000000058E30A80A0030E0000EA80BF8BE308
:101BD000016046E20820A0E10A00A0E10C109DE5AA
:101BE000020300EB04209DE5017087E202A090E073
:101BF000C21FA1E00C108DE50C1094E50500A0E1DA
:101C00000FE0A0E101F0A0E1000056E3040000DADB
:101C10000810A0E1A80200EB04008DE5000050E3ED
:101C2000E9FFFFAA101094E50500A0E10FE0A0E194
:101C300001F0A0E1800F1BE318D08D02F001BD0878
:101C40000100E003008CBD0801001BE31300001A33
:101C500040001BE30B00000A400E1BE30A00A0013A
:101C60000C109D050200000A0C109DE500007AE2B0
:101C70000010E1E2002094E5043092E4002084E5C5
:101C8000030083E8050000EA000094E5041090E4F6
:101C9000000084E50C009DE5040081E500A081E5DD
:101CA0000700A0E118D08DE2F001BDE8008CBDE88E
:101CB00000A0A0E314009DE5017087E200B090E56C
:101CC0000C1094E50500A0E10FE0A0E101F0A0E117
:101CD0000010DBE7010011E3F5FFFF1A010070E3DC
:101CE00018D08D02F001BD08008CBD0810B09DE534
:101CF000000056E360BECBE32D0000DA40001BE39A
:101D00000C00000A2B0050E30200000A2D0050E3F3
:101D10000800001A40BE8BE30C1094E5017087E2C6
:101D20000500A0E10FE0A0E101F0A0E1016046E2C2
:101D3000000056E31E0000DA300050E31C00001AD9
:101D40000C1094E580BF8BE3016046E2017087E2EE
:101D50000500A0E10FE0A0E101F0A0E1000056E3E2
:101D6000100000DA780050E3580050130D00001AFC
:101D7000000058E3100058131800001A0C1094E5E6
:101D800080BFCBE3016046E2017087E20500A0E17D
:101D90000FE0A0E101F0A0E11080A0E30F0000EA55
:101DA0000000000000000000000058E30880A003CD
:101DB0000A0000EA000058E30A80A003070000EAD6
:101DC000980A2AE00C1094E50500A0E180BF8BE39F
:101DD000016046E2017087E20FE0A0E101F0A0E1BE
:101DE000000056E3030000DA0810A0E1320200EB25
:101DF000000050E3F1FFFFAA101094E50500A0E1F8
:101E00000FE0A0E101F0A0E1800F1BE318D08D02EC
:101E1000F001BD080100E003008CBD0801001BE3D8
:101E20001A00001A40001BE30D00000A000094E5B0
:101E3000400E1BE300A06A12041090E4000084E549
:101E4000800E1BE300A0C1151000001A08001BE360
:101E500000A0810500A0C1152AC4A01101C0C115B0
:101E60000A0000EA000094E5800E1BE3041090E4F1
:101E7000000084E500A0C1150400001A08001BE35F
:101E800000A0810500A0C1152AC4A01101C0C11580
:101E90000700A0E118D08DE2F001BDE8008CBDE89C
:101EA000804D2DE970002DE930D04DE20150A0E1C8
:101EB0000240A0E100A0A0E30080A0E30070A0E148
:101EC000720200EB2C008DE50160D5E4000056E3C2
:101ED00030D08D02F001BD080A00A001008CBD08C1
:101EE000250056E33300000A2C009DE5000090E534
:101EF0000610D0E7010011E31B00000A0110D5E431
:101F00000110D0E7010011E3FBFFFF1A0060A0E120
:101F10000C1094E50700A0E1015045E20FE0A0E1BC
:101F200001F0A0E10000D6E7010010E30900000A7B
:101F30002C009DE5018088E2006090E50C1094E59E
:101F40000700A0E10FE0A0E101F0A0E10000D6E76A
:101F5000010010E3F5FFFF1A101094E50700A0E15F
:101F60000FE0A0E101F0A0E1D6FFFFEA0C1094E53C
:101F70000700A0E10FE0A0E101F0A0E1060050E1C0
:101F80000180880200B0A0E1CEFFFF0A101094E5A6
:101F90000700A0E10FE0A0E101F0A0E130D08DE268
:101FA00001007BE300005A030A00A0110000E003D7
:101FB000F001BDE8008CBDE80000D5E50060A0E3BD
:101FC00000B0A0E32A0050E3015085020110D5E4DF
:101FD0000160A003300041E20A0050E31300002A30
:101FE00018269FE5040000EA02005BE130D08DC2B4
:101FF000F001BDC80A00A0C1008CBDC80B018BE078
:10200000800081E030B040E200005BE330D08DB270
:10201000F001BDB80A00A0B1008CBDB80110D5E434
:10202000106086E3300041E20A0050E3EDFFFF3A22
:10203000100016E380B4E0036C0051E30500001AC1
:102040000110D5E46C0051E304608613026086033E
:102050000110D504120000EA4C0051E32060860311
:102060000110D5040E00000A680051E30500001AB3
:102070000110D5E4680051E308608613806E860382
:102080000110D504060000EA6A0051E302608603ED
:102090000110D5040200000A740051E37A005113C4
:1020A0000110D504046084E508B084E50B00A0E1CC
:1020B000660051E36A00000A110000CA5B0051E3A8
:1020C000E000000A070000CA250051E32200000AD0
:1020D000450051E3470051136100000A580051E3E5
:1020E000D100000A180000EA630051E32D00000A45
:1020F000640051E35300000A650051E35800000AF0
:10210000110000EA700051E37900000A080000CADB
:10211000670051E35200000A690051E35400000ACD
:102120006E0051E35900000A6F0051E36900000A94
:10213000050000EA730051E37500000A750051E3E1
:10214000B400000A780051E3B700000A30D08DE2F5
:10215000F001BDE80A00A0E1008CBDE80C1094E598
:102160000700A0E10FE0A0E101F0A0E1250050E3AD
:10217000018088020060A0E152FFFF0A101094E580
:102180000700A0E10FE0A0E101F0A0E1010076E38B
:1021900030D08DE200005A030A00A0110000E003D5
:1021A000F001BDE8008CBDE8100016E301B0A0030B
:1021B0000010A0E328108DE5010016E30300001ACB
:1021C000000094E5041090E4000084E528108DE5FB
:1021D00000005BE330D08D02F001BD080A00A001D1
:1021E000008CBD08140000DA0C1094E5018088E230
:1021F0000700A0E10FE0A0E101F0A0E1010070E321
:102200000500001A30D08DE200005AE30A00A01148
:102210000000E003F001BDE8008CBDE8010016E31A
:102220000200001A28109DE50100C1E428108DE588
:1022300001B04BE200005BE3EAFFFFCA010016E3D6
:1022400001A08A021FFFFFEA400086E3040084E544
:102250000700A0E10420A0E10A10A0E305FEFFEBC7
:10226000D90000EA0410A0E10700A0E1400200EB61
:10227000D50000EA400086E3040084E50700A0E101
:102280000420A0E10010A0E3FAFDFFEBCE0000EA7D
:10229000000094E5800E16E304B090E4000084E5AD
:1022A0000080CB1507FFFF1A080016E30080CB154E
:1022B00028C4A01101C0CB1502FFFF1A020016E3CB
:1022C00000808B05FFFEFF0AC81FA0E104108BE50C
:1022D00000808BE5FBFEFFEA400086E3040084E516
:1022E0000700A0E10420A0E10810A0E3E1FDFFEB5E
:1022F000B50000EA800EC6E30E00C0E3040084E5EA
:102300000700A0E10420A0E11010A0E3D9FDFFEB3D
:10231000AD0000EA0020A0E328208DE500B0E0E356
:1023200020008DE524608DE52C009DE501B08BE259
:10233000002090E50700A0E11C208DE50C1094E53D
:102340000FE0A0E101F0A0E11C209DE50010A0E15C
:102350000000D2E7010010E3F2FFFF1A010071E371
:102360000000E0039800000A24009DE5010010E34E
:102370001300001A000094E5042090E4000084E5B6
:1023800028208DE50E0000EA20009DE5010040E2D6
:1023900020008DE524009DE5010010E30200001AF5
:1023A00028209DE50110C2E428208DE50C1094E55D
:1023B00001B08BE20700A0E10FE0A0E101F0A0E195
:1023C0000010A0E120009DE5000050E3060000DAC7
:1023D000010071E30400000A2C009DE5000090E577
:1023E0000100D0E7010010E3E6FFFF0A101094E5BA
:1023F0000700A0E10FE0A0E101F0A0E124009DE5CD
:10240000010010E328209D050000A0030000C20584
:102410000B00A0E16C0000EA0420A0E10A10A0E398
:102420000700A0E193FDFFEB670000EA400086E3B0
:10243000040084E50700A0E10420A0E11010A0E35F
:102440008CFDFFEB600000EA0100D5E40030A0E362
:102450000010A0E35E0050E30130A0030300D506A6
:102460000CC08DE20020A0E301218CE7011081E285
:10247000080051E3FAFFFFBA01E0A0E3000050E3D7
:1024800030D08D02F001BD080A00A001008CBD080B
:10249000C01FA0E1A11D80E0C122A0E10CC08DE21F
:1024A00002119CE7820240E001E0A0E31E0081E10E
:1024B00002018CE70E00D5E65D0050E3EEFFFF1A47
:1024C000000053E30700000A0000A0E30CC08DE207
:1024D00000119CE70110E0E100118CE7010080E2AF
:1024E000080050E3F9FFFFBA041094E500B0A0E340
:1024F00004108DE5081094E500108DE504109DE5AD
:10250000010011E30200001A000094E504B090E419
:10251000000084E50000A0E308008DE50C1094E5C0
:102520000700A0E10FE0A0E101F0A0E1010070E3ED
:102530002500000A0D0000EA00109DE5011041E2AF
:1025400000108DE504109DE5010011E30000001A64
:102550000100CBE408009DE510E08FE2010080E27D
:1025600008008DE50C1094E50700A0E101F0A0E162
:1025700000109DE5000051E30A0000DA010070E35D
:102580000800000AC01FA0E1A11D80E0C112A0E167
:102590000C208DE2012192E7811240E00130A0E39E
:1025A000130112E1E3FFFF1A101094E50700A0E108
:1025B0000FE0A0E101F0A0E104109DE5010011E3AE
:1025C0000020A0030020CB0508009DE5000050E39B
:1025D000060000AA30D08DE2010070E300005A032B
:1025E0000A00A0110000E003F001BDE8008CBDE886
:1025F000010016E301A08A02008088E031FEFFEAB4
:10260000CCCCCC0C0C0090E5800000E20EF0A0E1F8
:10261000AE0000EB360000EB23F8FFEB2E0000EAE3
:1026200001402DE96B0000EB0140BDE8000000EA2D
:102630000000E0E3EBF8FFEA042090E50010A0E1E1
:10264000000052E30600000A003091E50100D3E4E7
:10265000000050E301204212042081150030811552
:102660000EF0A0110100A0E30C0081E50000E0E302
:102670000EF0A0E1041090E5000051E30C00000A08
:102680000C3090E5002090E5000053E30800001AAC
:10269000083090E5020053E10500000A011081E2D4
:1026A000041080E5012042E2002080E50000A0E364
:1026B0000EF0A0E10000E0E30EF0A0E13A0050E3EC
:1026C000300040322020C0E3410052E33700422274
:1026D000010050E10000E0230EF0A0E110402DE9E0
:1026E0000040A0E1FFFFFFEB0400A0E11040BDE8C7
:1026F000CAFFFFEAF0402DE90CD04DE20150A0E105
:102700000040A0E1140100EB0000A0E300408DE5D3
:1027100004508DE5FFFFFFEB08008DE5C8009FE545
:102720000D10A0E100008FE0FFFFFFEB0050A0E1E3
:102730000160A0E103009DE8FFFFFFEBFFFFFFEB5F
:10274000FFFFFFEB0010A0E30000A0E3FFFFFFEBA3
:102750000070A0E1C50000EB0040A0E1207080E522
:102760000000A0E30010A0E3B10000EB011080E244
:10277000241084E50010A0E30000A0E3FFFFFFEBBE
:10278000280084E50000A0E30010A0E3FFFFFFEBBA
:102790002C0084E50000A0E30010A0E3FFFFFFEBA6
:1027A000300084E5FFFFFFEBFFFFFFEBFFFFFFEBD8
:1027B000FFFFFFEBFFFFFFEBFFFFFFEBFFFFFFEB79
:1027C000FFFFFFEB0500A0E10610A0E10CD08DE2B9
:1027D000F000BDE804F09DE408402DE9FFFFFFEBA9
:1027E000FFFFFFEBFFFFFFEB0880BDE8C00000002C
:1027F0000030A0E3A00000EA30402DE90A2050E2BA
:102800000030D1E220E1A0E101EF8EE10E0050E0C6
:102810002111C1E020E2A0E101EE8EE10E0090E086
:102820002112A1E020E4A0E101EC8EE10E0090E095
:102830002114A1E020E8A0E101E88EE10E0090E083
:102840002118A1E0010090E00010A1E2A001A0E1A8
:10285000810E80E1A111A0E10141A0E1204F84E1BE
:10286000005190E00140A4E0055095E00440A4E050
:10287000052052E00430D3E00030A0E30A20824279
:102880003080BD48010090E20010A1E23080BDE838
:1028900010402DE9750000EB240080E21080BDE8B7
:1028A000940100000A1040E2200140E0200280E094
:1028B000200480E0200880E0A001A0E1002180E069
:1028C000821051E0010080520A1081420EF0A0E116
:1028D0000E50A0E1650000EB05E0A0E10040A0E1A2
:1028E0000D10A0E10A30A0E10700C0E360D080E253
:1028F00010402DE941F8FFEB1040BDE807D0C1E3DF
:102900000060A0E30070A0E30080A0E300B0A0E3BB
:1029100004C0A0E1C009ACE8C009ACE8C009ACE85B
:10292000C009ACE813402DE90000A0E30010A0E3CB
:10293000FFFFFFEB401081E2012080E0442F82E2A4
:102940001C2084E5181084E50100A0E3100084E554
:102950001340BDE8140084E50010A0E10EF0A0E1F2
:1029600010402DE903002DE9400000EB0040A0E1FC
:102970000300BDE81C3094E503304DE0142094E5DD
:10298000002081E500E082E003005EE10A00008AA9
:102990000E3093E06330A0E10730C3E3401D8EE2C8
:1029A000071081E20710C1E3030051E10310A08189
:1029B000020041E0141084E51080BDE80020A0E191
:1029C0000000A0E3FFFFFFEB1080BDE801C080E244
:1029D000030010E30500000A0110D0E4000051E3F9
:1029E0000C0040000EF0A001030010E3F9FFFF1AF5
:1029F00038209FE5041090E4023041E00130C3E14B
:102A0000820313E1FAFFFF0A0C0040E0FF0011E32C
:102A1000030040020EF0A001FF0C11E3020040028F
:102A20000EF0A001FF0811E3010040020EF0A0E14A
:102A30000101010108402DE90100B0E10010D015AD
:102A4000000051130400000A18108FE2190000EB77
:102A5000000050E30000A0130880BD1808009FE5A7
:102A600000008FE00880BDE8430000001C0100006A
:102A700000009FE50EF0A0E10C09020070402DE976
:102A800000E0A0E1920E8CE092C121E0931E21E0D3
:102A90007080BDE80000A0E30EF0A0E10100E0E3DB
:102AA0000EF0A0E110402DE9F0FFFFEB040080E202
:102AB0001080BDE801010101030010E303001103D0
:102AC0001700001A00402DE91CE01FE5042090E4E7
:102AD000043091E40EC042E002C0CCE18EC31CE0A1
:102AE00003005201F8FFFF0A0040BDE8030CA0E11B
:102AF000020C50E0FF0E1C030700001A0308A0E1BF
:102B0000020850E0FF0C1C030300001A0304A0E1BC
:102B1000020450E0FF081C03020053006000A011F3
:102B20000EF0A0E10120D0E40130D1E4010052E335
:102B3000030052210400001A0120D0E40130D1E446
:102B4000010052E303005221F5FFFF0A030042E0B7
:102B50000EF0A0E1010000EF0EF0A0E110402DE921
:102B6000CFFFFFEB0010A0E3001080E51080BDE870
:102B7000C7FFFFEAC8FFFFEA1001000043000000A2
:102B8000F8FFFFFF0040404040404040404041418E
:102B90004141414040404040404040404040404032
:102BA00040404040400502020202020202020202CC
:102BB00002020202022020202020202020202002C9
:102BC0000202020202029090909090901010101059
:102BD00010101010101010101010101010101010F5
:102BE0000202020202028888888888880808080889
:102BF0000808080808080808080808080808080855
:102C0000020202024000000000000000000000007C
:102C100000000000000000000000000000000000B4
:102C200000000000000000000000000000000000A4
:102C30000000000000000000000000000000000094
:102C40000000000000000000000000000000000084
:102C50000000000000000000000000000000000074
:102C60000000000000000000000000000000000064
:102C70000000000000000000000000000000000054
:102C80000000000000000000000000000000000044
:102C900000000000D4280000000002000000000036
:102CA000D42800000000020000000000D42800002A
:102CB0000000000000000200000000000000020010
:102CC0006C09000044C1FF7F0200000040C1FF7F8B
:102CD0000200000049C1FF7FFCFF0080FFFF62F798
:102CE0006302FFFFFFFFFFFFFFFFFFFFFFFFFFFF8D
:102CF000FFFFFFFFFFFFFFFFFFFFFFFFFFFFFFFFE4
:102D0000FFFFFFFFFFFFFFFFFFFFFFFFFFFFFFFFD3
:102D1000FFFFFFFFFFFFFFFFFFFFFFFFFFFFFFFFC3
:102D2000FFFFFFFFFFFFFFFFFFFFFFFFFFFFFFFFB3
:102D3000FFFFFFFFFFFFFFFFFFFFFFFFFFFFFFFFA3
:102D4000FFFFFFFFFFFFFFFFFFFFFFFFFFFFFFFF93
:102D5000FFFFFFFFFFFFFFFFFFFFFFFFFFFFFFFF83
:102D6000FFFFFFFFFFFFFFFFFFFFFFFFFFFFFFFF73
:102D7000FFFFFFFFFFFFFFFFFFFFFFFFFFFFFFFF63
:102D8000FFFFFFFFFFFFFFFFFFFFFFFFFFFFFFFF53
:102D9000FFFFFFFFFFFFFFFFFFFFFFFFFFFFFFFF43
:102DA000FFFFFFFFFFFFFFFFFFFFFFFFFFFFFFFF33
:102DB000FFFFFFFFFFFFFFFFFFFFFFFFFFFFFFFF23
:102DC000FFFFFFFFFFFFFFFFFFFFFFFFFFFFFFFF13
:102DD000FFFFFFFFFFFFFF000000000000000000FA
:102DE0000000000000002000000001004000000082
:102DF0000200800000000400000100000800000242
:102E00000000100000040000200000080000400046
:102E10000010000080000000000000000000000022
:102E200000000000000000000000000000000000A2
:102E30000000000000000000000000000000000092
:102E40000000000000000000000000000000000082
:102E50000000000000020000000000000000000070
:102E6000000000000000000020080000000000003A
:102E70000800000100000000000000000000000049
:102E80000000000000000000000000000000000042
:102E90000000000000000000000000000000000032
:102EA0000000000000000000000000000000000022
:102EB0000000000000000000000000000000000012
:102EC0000000000000000000000000000000000002
:102ED00000E800000000000000000000000000000A
:102EE00000000000000000000000000000000000E2
:102EF00000000000000000000000000000000000D2
:102F000000000000000000000000000000000000C1
:102F100000000000000000000000000000000000B1
:102F200000000000000000000000000000000000A1
:102F30000000000000000000000000000000000091
:102F40000000000000000000000000000000004041
:102F50000000000000000000000000000000000071
:102F60000000002008000000000000080000010030
:102F70000000000000000000000000000000000051
:102F80000000000000000000000000000000000041
:102F90000000000000000000000000000000000031
:102FA0000000000000000000000000000000000021
:102FB0000000000000000000000000000000000011
:102FC000000000000000000000000020E000000001
:102FD00000000000000000000000000000000000F1
:102FE00000000000000000000000000000000000E1
:102FF00000000000000000000000000000000000D1
:1030000000000000000000000000000000000000C0
:1030100000000000000000000000000000000000B0
:1030200000000000000000000000000000000000A0
:103030000000000000000000000000000000000090
:103040000000000000000000000000000000000080
:103050000000000000000000000000000000000070
:103060000000000000000000000000000000000060
:103070000000000000000000000000000000000050
:103080000000000000000000000000000000000040
:103090000000000000000000000000000000000030
:1030A0000000000000000000000000000000000020
:1030B0000000000000000000000000000000000010
:1030C00000000000000000FE7E0000000000000084
:1030D00000000000000000000000000000000000F0
:1030E00000000000000000000000000000000000E0
:1030F00000000000000000000000000000000000D0
:1031000000000000000000000000000000000000BF
:1031100000000000000000000000000000000000AF
:10312000000000000000000000000000000000009F
:10313000000000000000000000000000000000008F
:10314000000000000000000000000000000000007F
:10315000000000000000000000000000000000006F
:10316000000000000000000000000000000000005F
:10317000000000000000000000000000000000004F
:10318000000000000000000000000000000000003F
:10319000000000000000000000000000000000002F
:1031A000000000000000000000000000000000001F
:1031B000000000000000000000000000000000FC13
:1031C0000060F37E0000000000000000000000002E
:1031D00000000000000000000000000000000000EF
:1031E00000000000000000000000000000000000DF
:1031F00000000000000000000000000000000000CF
:1032000000000000000000000000000000000000BE
:1032100000000000000000000000000000000000AE
:10322000000000000000000000000000000000009E
:10323000000000000000000000000000000000008E
:10324000000000000000000000000000000000007E
:10325000000000000000000000000000000000006E
:10326000000000000000000000000000000000005E
:10327000000000000000000000000000000000004E
:10328000000000000000000000000000000000003E
:10329000000000000000000000000000000000002E
:1032A000000000000000000000000000000000001E
:1032B00000000000000000000000FC0060F37E0041
:1032C0000100000010000204081020000408102073
:1032D0004000081020408000102040800001204065
:1032E0008000010240800001020480000102040805
:1032F0000001020408100002040810200000000071
:1033000000000008102040800010204080000120B4
:10331000408000010240800001020480000102049C
:10332000080001020408100002040810000004084C
:103330001000000008100000000000100040000015
:103340000120408000000040800001020480000154
:103350000204080001020408100002040810200002
:1033600004081020400008102040800010204080F9
:1033700000012040800001020000000000008000E9
:1033800001020408000102040810000204081020D1
:103390000004081020400008102040800010204049
:1033A000800001204080000100408000010000807A
:1033B0000001000000FC00E0FA7E0009000000901F
:1033C0000012244890200124489020410248902077
:1033D0004182049020418204092041820409124064
:1033E0008204091224800409122448000912244886
:1033F0009000122448902001000000000000489036
:103400002041820490204182040920418204091253
:10341000408204091224800409122448000912245D
:103420004890001224489000002448900000004872
:10343000900000000000900040020009204182043A
:103440000000408204091224800409122448000963
:1034500012244890001224489020012448902041D2
:103460000248902041820490204182040920418238
:103470000409120000000000008004091224480022
:1034800009122448900012244890200124489020DA
:103490004102489020418204902041820409204149
:1034A0008204090040820409000080040900000031
:1034B000FC00A0F20000000000000000000000007E
:1034C00000000000000000000000000000000000FC
:1034D00000000000000000000000000000000000EC
:1034E00000000000000000000000000000000000DC
:1034F00000000000000000000000000000000000CC
:1035000000000000000000000000000000000000BB
:1035100000000000000000000000000000000000AB
:10352000000000000000000000000000000000009B
:10353000000000000000000000000000000000008B
:10354000000000000000000000000000000000007B
:10355000000000000000000000000000000000006B
:10356000000000000000000000000000000000005B
:10357000000000000000000000000000000000004B
:10358000000000000000000000000000000000003B
:10359000000000000000000000000000000000002B
:1035A0000000000000000000000000000000FE001D
:1035B000000000000000000000000000000000000B
:1035C00000000000000000000000000000000000FB
:1035D00000000000000000000000000000000000EB
:1035E00000000000000000000000000000000000DB
:1035F00000000000000000000000000000000000CB
:1036000000000000000000000000000000000000BA
:1036100000000000000000000000000000000000AA
:10362000000000000000000000000000000000009A
:10363000000000000000000000000000000000008A
:10364000000000000000000000000000000000007A
:10365000000000000000000000000000000000006A
:10366000000000000000000000000000000000005A
:10367000000000000000000000000000000000004A
:10368000000000000000000000000000000000003A
:10369000000000000000000000000000000000002A
:1036A000000000000000000000FE0000000000001C
:1036B000000000000000000000000000000000000A
:1036C00000000000000000000000000000000000FA
:1036D00000000000000000000000000000000000EA
:1036E00000000000000000000000000000000000DA
:1036F00000000000000000000000000000000000CA
:1037000000000000000000000000000000000000B9
:1037100000000000000000000000000000000000A9
:103720000000000000000000000000000000000099
:103730000000000000000000100000000000000079
:103740000000000000000000000000000000000079
:103750000000000000000000000000200010000039
:103760000000000000000000000000000000000059
:103770000000000000000000000000000000000049
:103780000000000000000000000000000000000039
:103790000000000000000000000000000000000029
:1037A00000000020EF00000000000000000000000A
:1037B0000000000000000000000000000000000009
:1037C00000000000000000000000000000000000F9
:1037D00000000000000000000000000000000000E9
:1037E00000000000000000000000000000000000D9
:1037F00000000000000000000000000000000000C9
:1038000000000000000000000000000000000000B8
:1038100000000000000000000000000000000000A8
:103820000000000000000000000000000000000098
:1038300000000200200000001088000000000000CE
:103840000000000000000000000000000000000078
:103850000000000000000000000000000000000068
:103860000000000000000000000000000000000058
:103870000000000000000000000000000000000048
:103880000000000000000000000000000000000038
:103890000000000000000000000000000000A0EF99
:1038A0000000000000000000000000000000000018
:1038B0000000000000000000000000000000000008
:1038C00000000000000000000000000000000000F8
:1038D00000000000000000000000000000000000E8
:1038E00000000000000000000000000000000000D8
:1038F00000000000000000000000000000000000C8
:1039000000000000000000000000000000000000B7
:1039100000000000000000000000000000000000A7
:10392000000000000000000000000008000000800F
:10393000428502042000000000000000000000009A
:103940000000000000000000000000000000000077
:10395000020100008A1021408408000000000000DD
:103960000000000000000000000000000000000057
:103970000000000000000000000000000000000047
:103980000000000000000000000000000000000037
:10399000000000000000000000E0E2000000000065
:1039A0000000000000000000000000000000000017
:1039B0000000000000000000000000000000000007
:1039C00000000000000000000000000000000000F7
:1039D00000000000000000000000000000000000E7
:1039E00000000000000000000000000000000000D7
:1039F00000000000000000000000000000000000C7
:103A000000000000000000000000000000000000B6
:103A100000000000000000000000000000000000A6
:103A20000000000000000000000000000000000096
:103A30000000000000000000000000000000000086
:103A400000000000000000000054891084420400BF
:103A50004000000000000000000000000000000026
:103A60000000000000000000000000000000000056
:103A70000000000000000000000000000000000046
:103A80000000000000000000000000000000000036
:103A90000000000000ED0000000000000000000039
:103AA0000000000000000000000000000000000016
:103AB0000000000000000000000000000000000006
:103AC00000000000000000000000000000000000F6
:103AD00000000000000000000000000000000000E6
:103AE00000000000000000000000000000000000D6
:103AF00000000000000000000000000000000000C6
:103B000000000000000000000000000000000000B5
:103B10000000000000000000000000000000004065
:103B20000000010000000010084102000000000039
:103B30000000000000000000000000000000000085
:103B40000000000000000000000100000002000072
:103B50000000000000000000000000000000000065
:103B60000000000000000000000000000000000055
:103B70000000000000000000000000000000000045
:103B8000000000000000000000000000000000E055
:103B9000FA0000000000000000000000000000002B
:103BA0000000000000000000000000000000000015
:103BB0000000000000000000000000000000000005
:103BC00000000000000000000000000000000000F5
:103BD00000000000000000000000000000000000E5
:103BE00000000000000000000000000000000000D5
:103BF00000000000000000000000000000000000C5
:103C000000000000000000000000000000000000B4
:103C100000000000000000000000008400102000F0
:103C2000000800200000000000000000000000006C
:103C30000000000000000000000000000000000084
:103C40002000000000000200000000000000000052
:103C50000000000000000000000000000000000064
:103C60000000000000000000000000000000000054
:103C70000000000000000000000000000000000044
:103C80000000000000000000000040F10000000003
:103C90000000000000000000000000000000000024
:103CA0000000000000000000000000000000000014
:103CB0000000000000000000000000000000000004
:103CC00000000000000000000000000000000000F4
:103CD00000000000000000000000000000000000E4
:103CE00000000000000000000000000000000000D4
:103CF00000000000000000000000000000000000C4
:103D000000000000000000000000000000000000B3
:103D100000000000000000000000000000000000A3
:103D20000000000000000000000000000000000093
:103D3000000000000000000000000000400008003B
:103D40000000000000000000000000000000000073
:103D50000000000000000000000000000000000063
:103D60000000000000000000000000000000000053
:103D70000000000000000000000000000000000043
:103D8000000000000000F200000000000000000041
:103D90000000000000000000000000000000000023
:103DA0000000000000000000000000000000000013
:103DB0000000000000000000000000000000000003
:103DC00000000000000000000000000000000000F3
:103DD00000000000000000000000000000000000E3
:103DE00000000000000000000000000000000000D3
:103DF00000000000000000000000000000000000C3
:103E000000000000000000000000000000000000B2
:103E100000000000000000000000000000000000A2
:103E20000000000000000000000000000000000092
:103E30000000000000000000000000000000000082
:103E40000000000000000000000000000000000072
:103E50000000000000000000000000000000000062
:103E60000000000000000000000000000000000052
:103E70000000000000000000002000000000000022
:103E800000FC000000000000000000000000000036
:103E90000000000000000000000000000000000022
:103EA0000000000000000000000000000000000012
:103EB0000000000000000000000000000000000002
:103EC00000000000000000000000000000000000F2
:103ED00000000000000000000000000000000000E2
:103EE00000000000000000000000000000000000D2
:103EF00000000000000000000000000000000000C2
:103F000000000000000000000000000000000000B1
:103F1000040000000000000000000000000000009D
:103F20000000000000000000000000000000000091
:103F30000000000000000000000000000000000081
:103F40000000000000000000000000000000000071
:103F50000000000000000000000000000000000061
:103F60000000000000000000000000000000000051
:103F7000000000000000000000000000FA00000047
:103F80000000000000000000000000000000000031
:103F90000000000000000000000000000000000021
:103FA0000000000000000000000000000000000011
:103FB0000000000000000000000000000000000001
:103FC00000000000000000000000000000000000F1
:103FD00000000000000000000000000000000000E1
:103FE00000000000000000000000000000000000D1
:103FF00000000000000000000000000000000000C1
:104000000000000000000080100240282008112459
:104010005A04000000000000000000000000000042
:1040200000000000000000000000000852250A8582
:104030000A14214284081100000000000000000062
:104040000000000000000000000000000000000070
:104050000000000000000000000000000000000060
:104060000000000000000000000000000000000050
:1040700000000000000060E60000000000000000FA
:104080000000000000000000000000000000000030
:104090000000000000000000000000000000000020
:1040A0000000000000000000000000000000000010
:1040B0000000000000000000000000000000000000
:1040C00000000000000000000000000000000000F0
:1040D00000000000000000000000000000000000E0
:1040E00000000000000000000000000000000000D0
:1040F00000000000000000000000000000000000C0
:10410000008008001002000045841000A800000094
:10411000000000000000000000000000000000009F
:104120000000000000005000404008200044000053
:10413000000000000000000000000000000000007F
:10414000000000000000000000000000000000006F
:10415000000000000000000000000000000000005F
:10416000000000000000000000000000000000004F
:1041700000C0F90000000000000000000000000086
:10418000000000000000000000000000000000002F
:10419000000000000000000000000000000000001F
:1041A000000000000000000000000000000000000F
:1041B00000000000000000000000000000000000FF
:1041C00000000000000000000000000000000000EF
:1041D00000000000000000000000000000000000DF
:1041E00000000000000000000000000000000000CF
:1041F000000000000000000000000000002040005F
:10420000500500408000A0200000000000000000D9
:10421000000000000000000000000000000000009E
:1042200000000050000000000020002002000000FC
:10423000000000000000000000000000000000007E
:10424000000000000000000000000000000000006E
:10425000000000000000000000000000000000005E
:1042600000000000000000000000000060E100000D
:10427000000000000000000000000000000000003E
:10428000000000000000000000000000000000002E
:10429000000000000000000000000000000000001E
:1042A000000000000000000000000000000000000E
:1042B00000000000000000000000000000000000FE
:1042C00000000000000000000000000000000000EE
:1042D00000000000000000000000000000000000DE
:1042E00000000000000000000000000000000000CE
:1042F00000000000000000000000000002000400B8
:10430000400000000000000000000000000000006D
:10431000000000000000000000000000000000207D
:10432000000000000000000100000000000000008C
:10433000000000000000000000000000000000007D
:10434000000000000000000000000000000000006D
:10435000000000000000000000000000000000005D
:104360000000000000000060ED0000000000000000
:10437000000000000000000000000000000000003D
:10438000000000000000000000000000000000002D
:10439000000000000000000000000000000000001D
:1043A000000000000000000000000000000000000D
:1043B00000000000000000000000000000000000FD
:1043C00000000000000000000000000000000000ED
:1043D00000000000000000000000000000000000DD
:1043E00000000000000000000000000000000000CD
:1043F0000000000000002000000800000002000093
:1044000000000000000000000000000000000000AC
:10441000000000000000000000000000000000009C
:10442000000000000000000000000000000000008C
:10443000000000000000000000000000000000007C
:10444000000000000000000000000000000000006C
:10445000000000000000000000000000000000005C
:104460000000A0F4000000000000000000000000B8
:10447000000000000000000000000000000000003C
:10448000000000000000000000000000000000002C
:10449000000000000000000000000000000000001C
:1044A000000000000000000000000000000000000C
:1044B00000000000000000000000000000000000FC
:1044C00000000000000000000000000000000000EC
:1044D00000000000000000000000000000000000DC
:1044E00000000000000000000000000000000000CC
:1044F00000000000000100000000000000000000BB
:1045000000000000000000000000000000000000AB
:10451000000000000000000000000000400000005B
:10452000000000000000000000000000000000008B
:10453000000000000000000000000000000000007B
:10454000000000000000000000000000000000006B
:104550000000000000000000000000000040FB0020
:10456000000000000000000000000000000000004B
:10457000000000000000000000000000000000003B
:10458000000000000000000000000000000000002B
:10459000000000000000000000000000000000001B
:1045A000000000000000000000000000000000000B
:1045B00000000000000000000000000000000000FB
:1045C00000000000000000000000000000000000EB
:1045D00000000000000000000000000000000000DB
:1045E000000000000000000020000000000000406B
:1045F000002000000000000000000000000000009B
:1046000000000000000000000000000000000000AA
:104610000000000200000000000000000000000098
:10462000000000000000000000000000000000008A
:10463000000000000000000000000000000000007A
:10464000000000000000000000000000000000006A
:10465000000000000000000060FC000000000000FE
:10466000000000000000000000000000000000004A
:10467000000000000000000000000000000000003A
:10468000000000000000000000000000000000002A
:10469000000000000000000000000000000000001A
:1046A000000000000000000000000000000000000A
:1046B00000000000000000000000000000000000FA
:1046C00000000000000000000000000000000000EA
:1046D00000000000000000000000000000000000DA
:1046E00000000000000000000000000000000000CA
:1046F00000000000000000000000000000000000BA
:104700000000000000000000000000000010000099
:104710000000000000000000000000000000000099
:104720000000000000000000000000000000000089
:104730000000000000000000000000000000000079
:104740000000000000000000000000000000000069
:1047500000000000FF00000000000000000000005A
:104760000000000000000000000000000000000049
:104770000000000000000000000000000000000039
:104780000000000000000000000000000000000029
:104790000000000000000000000000000000000019
:1047A0000000000000000000000000000000000009
:1047B00000000000000000000000000000000000F9
:1047C00000000000000000000000000000000000E9
:1047D00000000000000000000000000000000000D9
:1047E00000000000000000000000000000000000C9
:1047F00000000000000000000000000000000000B9
:104800000000000000400000000000400000000028
:104810000000000000000000000000000000000098
:104820000000000000000000000000000000000088
:104830000000000000000000000000000000000078
:10484000000000000000000000000000000000FE6A
:104850000000000000000000000000000000000058
:104860000000000000000000000000000000000048
:104870000000000000000000000000000000000038
:104880000000000000000000000000000000000028
:104890000000000000000000000000000000000018
:1048A0000000000000000000000000000000000008
:1048B00000000000000000000000000000000000F8
:1048C00000000000000000000000000000000000E8
:1048D0000000000000000000000040000000020096
:1048E00000000000000100000000000000000000C7
:1048F00000000000000000000000000000000000B8
:1049000000000000000000000000000000000000A7
:104910000000000000000000000000000000000097
:104920000000000000000000000000000000000087
:104930000000000000000000000000000000000077
:1049400000000000000000000040ED00000000003A
:104950000000000000000000000000000000000057
:104960000000000000000000000000000000000047
:104970000000000000000000000000000000000037
:104980000000000000000000000000000000000027
:104990000000000000000000000000000000000017
:1049A0000000000000000000000000000000000007
:1049B00000000000000000000000000000000000F7
:1049C00000000000000000000000000000000000E7
:1049D00000000000000000002000000000000000B7
:1049E00000000000000000000000000000000000C7
:1049F0000000000000000000001000008000000027
:104A000000000000000000000000000000000000A6
:104A10000000000000000000000000000000000096
:104A20000000000000000000000000000000000086
:104A30000000000000000000000000000000000076
:104A400000000000A0EF00000000000000000000D7
:104A50000000000000000000000000000000000056
:104A60000000000000000000000000000000000046
:104A70000000000000000000000000000000000036
:104A80000000000000000000000000000000000026
:104A90000000000000000000000000000000000016
:104AA0000000000000000000000000000000000006
:104AB00000000000000000000000000000000000F6
:104AC00000000000000000000000000000000000E6
:104AD0000080002000000000000100000000000035
:104AE00000000000000000000000000000000000C6
:104AF00000000000008000000000000000088000AE
:104B000000000000000000000000000000000000A5
:104B10000000000000000000000000000000000095
:104B20000000000000000000000000000000000085
:104B30000000000000000000000000000000002055
:104B4000EE00000000000000000000000000000077
:104B50000000000000000000000000000000000055
:104B60000000000000000000000000000000000045
:104B70000000000000000000000000000000000035
:104B80000000000000000000000000000000000025
:104B90000000000000000000000000000000000015
:104BA0000000000000000000000000000000000005
:104BB00000000000000000000000000000000000F5
:104BC00000000000000000000000000000000020C5
:104BD00000000000020000000000000000000000D3
:104BE00000000000000000000000000000000000C5
:104BF00000000000040000000000000000000000B1
:104C000000000000000000000000000000000000A4
:104C10000000000000000000000000000000000094
:104C20000000000000000000000000000000000084
:104C30000000000000000000000040FE0000000036
:104C40000000000000000000000000000000000064
:104C50000000000000000000000000000000000054
:104C60000000000000000000000000000000000044
:104C70000000000000000000000000000000000034
:104C80000000000000000000000000000000000024
:104C90000000000000000000000000000000000014
:104CA0000000000000000000000000000000000004
:104CB00000000000000000000000000000000000F4
:104CC0000000000000000000000080000000000064
:104CD00000000000000000000000000000000000D4
:104CE00000000000000000000000000000000000C4
:104CF00000000000000000000000000000000000B4
:104D000000000000000000000000000000000000A3
:104D10000000000000000000000000000000000093
:104D20000000000000000000000000000000000083
:104D3000000000000080F6000000000000000000FD
:104D40000000000000000000000000000000000063
:104D50000000000000000000000000000000000053
:104D60000000000000000000000000000000000043
:104D70000000000000000000000000000000000033
:104D80000000000000000000000000000000000023
:104D90000000000000000000000000000000000013
:104DA0000000000000000000000000000000000003
:104DB00000000000000000002000000000000000D3
:104DC00000000000000000000000000000000000E3
:104DD00000000000000000000000000000000000D3
:104DE000000000000000000000142801050014006D
:104DF0005000000000000000000000000000000063
:104E00000000000000000000000000100100000091
:104E10000000000000000000000000000000000092
:104E20000000000000000000000000000000000082
:104E3000E0FC000000000000000000000000000096
:104E40000000000000000000000000000000000062
:104E50000000000000000000000000000000000052
:104E60000000000000000000000000000000000042
:104E70000000000000000000000000000000000032
:104E80000000000000000000000000000000000022
:104E90000000000000000000000000000000000012
:104EA0000000000000000000000000000000000002
:104EB00000000000000000000000000000002800CA
:104EC00000000000000000000000000000000000E2
:104ED00000000000000000000000000000000000D2
:104EE00000000000008000050A00285000000000BB
:104EF00000000000000000000000000000000000B2
:104F000000000000000000000000000000000000A1
:104F10000000000000000000000000000000000091
:104F2000000000000000000000000000FE00000083
:104F30000000000000000000000000000000000071
:104F40000000000000000000000000000000000061
:104F50000000000000000000000000000000000051
:104F60000000000000000000000000000000000041
:104F70000000000000000000000000000000000031
:104F80000000000000000000000000000000000021
:104F90000000000000000000000000000000000011
:104FA00000000000000000000000000000001000F1
:104FB00000000000000000000040000000000000B1
:104FC00000000000000000000000000000000000E1
:104FD00000000000000000000000000001020000CE
:104FE0009006000400100000000000000000000017
:104FF00000000000000000000000000000000000B1
:1050000000000000000000000000000000000000A0
:105010000000000000000000000000000000001080
:1050200000000000000000F400000000000000008C
:105030000000000000000000000000000000000070
:105040000000000000000000000000000000000060
:105050000000000000000000000000000000000050
:105060000000000000000000000000000000000040
:105070000000000000000000000000000000000030
:105080000000000000000000000000000000000020
:105090000000000000000000000000000000000010
:1050A0000000000000000000000000000000000000
:1050B00000000000100000000000000000000000E0
:1050C00000000000000000000000000000000000E0
:1050D00000000000000000000000000000000000D0
:1050E0001020000000000000000000000000000090
:1050F00000000000000000000000000000000000B0
:10510000000000000000000000000000000000009F
:10511000000000000000000000000000000000008F
:105120000000ED0000000000000000000000000092
:10513000000000000000000000000000000000006F
:10514000000000000000000000000000000000005F
:10515000000000000000000000000000000000004F
:10516000000000000000000000000000000000003F
:10517000000000000000000000000000000000002F
:10518000000000000000000000000000000000001F
:10519000000000000000000000000000000000000F
:1051A00000000000000000000000000000000000FF
:1051B00000000000002000000000000000000000CF
:1051C00000000000000000000000000000000008D7
:1051D000000000000408000002040010200000008D
:1051E00000000000000000000000000000000000BF
:1051F00000000000000000000000000000000000AF
:10520000000000000000000000000000000000009E
:1052100000000000001000400000010040EC000011
:10522000000000000000000000000000000000007E
:10523000000000000000000000000000000000006E
:10524000000000000000000000000000000000005E
:10525000000000000000000000000000000000004E
:10526000000000000000000000000000000000003E
:10527000000000000000000000000000000000002E
:10528000000000000000000000000000000000001E
:10529000000000000000000000000000000000000E
:1052A0000000000000000060C8902143BA2053B7FE
:1052B0004E991201000000000000000000000000F4
:1052C0000000000000000000000000002463968938
:1052D0005926F8F7EFDFBF7F000000000000000054
:1052E00000000000000000000000000000000000BE
:1052F00000000000000000000000000000000000AE
:10530000000000000000000000000000000000009D
:10531000000000F000000060F8180000000000002D
:10532000000000000000000000000000000000007D
:10533000000000000000000000000000000000006D
:10534000000000000000000000000000000000005D
:10535000000000000000000000000000000000004D
:10536000000000000000000000000000000000003D
:10537000000000000000000000000000000000002D
:10538000000000000000000000000000000000001D
:10539000000000000000000000000000000000000D
:1053A000000080050B162CB4A14A8458BB6A030088
:1053B00000000000000000000000000000000000ED
:1053C00000000000000000E49991E34666FCF7EF5E
:1053D000DFBFFF0000000000000000000000000030
:1053E00000000000000000000000000000000000BD
:1053F00000000000000000000000000000000000AD
:105400000000000000000000000000000000F000AC
:105410003000E0F440000000000000000000000048
:10542000000000000000000000000000000000007C
:10543000000000000000000000000000000000006C
:10544000000000000000000000000000000000005C
:10545000000000000000000000000000000000004C
:10546000000000000000000000000000000000003C
:10547000000000000000000000000000000000002C
:10548000000000000000000000000000000000001C
:105490000000000000000000000000000060CB964B
:1054A0002D5B74E0CEBF3F77EE00000000000000EF
:1054B00000000000000000000000000000000000EC
:1054C0000000FCB9F3EFCE3F98F763C08C190000E1
:1054D00000000000000000000000000000000000CC
:1054E00000000000000000000000000000000000BC
:1054F00000000000000000000000000000000000AC
:10550000000000000000000000F000800060EC00DF
:10551000000000000000000000000000000000008B
:10552000000000000000000000000000000000007B
:10553000000000000000000000000000000000006B
:10554000000000000000000000000000000000005B
:10555000000000000000000000000000000000004B
:10556000000000000000000000000000000000003B
:10557000000000000000000000000000000000002B
:10558000000000000000000000000000000000001B
:105590000000000000000000B065CB962D7A60D7B7
:1055A0008C2955F6000000000000000000000000FB
:1055B00000000000000000000000000000CCB83334
:1055C00069CE0C180063C08C1900000000000000B8
:1055D00000000000000000000000000000000000CB
:1055E00000000000000000000000000000000000BB
:1055F00000000000000000000000000000000000AB
:1056000000000000F000000040E700000000000083
:10561000000000000000000000000000000000008A
:10562000000000000000000000000000000000007A
:10563000000000000000000000000000000000006A
:10564000000000000000000000000000000000005A
:10565000000000000000000000000000000000004A
:10566000000000000000000000000000000000003A
:10567000000000000000000000000000000000002A
:10568000000000000000000000000000000000001A
:1056900000000000000040000000000000000000CA
:1056A00000000000000000000000000000000000FA
:1056B00000000000000000000000000000000008E2
:1056C000100040800000000000000000000000000A
:1056D00000000000000000000000000000000000CA
:1056E00000000000000000000000000000000000BA
:1056F00000000000000000000000000000000000AA
:1057000000000040FF00000000000000000000005A
:105710000000000000000000000000000000000089
:105720000000000000000000000000000000000079
:105730000000000000000000000000000000000069
:105740000000000000000000000000000000000059
:105750000000000000000000000000000000000049
:105760000000000000000000000000000000000039
:105770000000000000000000000000000000000029
:105780000000000000000000000000000000000019
:105790000000000000000000000000000000000009
:1057A00000000000000000000000000000000000F9
:1057B00000000000000000000000000000000000E9
:1057C00000000000000000000000000000000000D9
:1057D00000000000000000000000000000000000C9
:1057E00000000000000000000000000000000000B9
:1057F000000000000000000000000000000000FEAB
:105800000000000000000000000000000000000098
:105810000000000000000000000000000000000088
:105820000000000000000000000000000000000078
:105830000000000000000000000000000000000068
:105840000000000000000000000000000000000058
:105850000000000000000000000000000000000048
:105860000000000000000000000000000000000038
:105870000000000000000000000000000000000028
:105880001000000000000000000000000000000008
:105890000000000000000000000000000000000008
:1058A00000000000000000000000000010000000E8
:1058B00000000000000000000000000000000000E8
:1058C00000000000000000000000000000000000D8
:1058D00000000000000000000000000000000000C8
:1058E00000000000000000000000000000000000B8
:1058F00000002000000000000000ED00000000009B
:105900000000000000000000000000000000000097
:105910000000000000000000000000000000000087
:105920000000000000000000000000000000000077
:105930000000000000000000000000000000000067
:105940000000000000000000000000000000000057
:105950000000000000000000000000000000000047
:105960000000000000000000000000000000000037
:105970000000000000000000000000000000000027
:105980000000000000000000000000000000000017
:105990000000000000000000000000000000000007
:1059A00000000000000000000000000000000000F7
:1059B00000000000000000000000000000000000E7
:1059C00000000000000000000000000000000000D7
:1059D00000000000000000000000000000000000C7
:1059E0000000000000000000000000000000008037
:1059F0000001020080E40000000000000000000040
:105A00000000000000000000000000000000000096
:105A10000000000000000000000000000000000086
:105A20000000000000000000000000000000000076
:105A30000000000000000000000000000000000066
:105A40000000000000000000000000000000000056
:105A50000000000000000000000000000000000046
:105A60000000000000000000000000000000000036
:105A70000000000000000000000000000000000026
:105A800000400400980011224C8810010000000022
:105A90000000000000000000000000000000000006
:105AA00000000000604A84295326C894295BA6CCD4
:105AB00000000000000000000000000000000000E6
:105AC00000000000000000000000000000000000D6
:105AD00000000000000000000000000000000000C6
